{
  "_format": "hh-sol-artifact-1",
  "contractName": "IdentityVerification",
  "sourceName": "contracts/IdentityVerification.sol",
  "abi": [
    {
      "inputs": [],
      "stateMutability": "nonpayable",
      "type": "constructor"
    },
    {
      "anonymous": false,
      "inputs": [
        {
          "indexed": false,
          "internalType": "address",
          "name": "user",
          "type": "address"
        }
      ],
      "name": "UserRegistered",
      "type": "event"
    },
    {
      "anonymous": false,
      "inputs": [
        {
          "indexed": false,
          "internalType": "address",
          "name": "user",
          "type": "address"
        }
      ],
      "name": "UserVerified",
      "type": "event"
    },
    {
      "inputs": [],
      "name": "admin",
      "outputs": [
        {
          "internalType": "address",
          "name": "",
          "type": "address"
        }
      ],
      "stateMutability": "view",
      "type": "function"
    },
    {
      "inputs": [
        {
          "internalType": "address",
          "name": "_user",
          "type": "address"
        }
      ],
      "name": "isUserVerified",
      "outputs": [
        {
          "internalType": "bool",
          "name": "",
          "type": "bool"
        }
      ],
      "stateMutability": "view",
      "type": "function"
    },
    {
      "inputs": [
        {
          "internalType": "string",
          "name": "_name",
          "type": "string"
        },
        {
          "internalType": "string",
          "name": "_governmentId",
          "type": "string"
        },
        {
          "internalType": "string",
          "name": "_phoneNumber",
          "type": "string"
        },
        {
          "internalType": "string",
          "name": "_ssmNumber",
          "type": "string"
        }
      ],
      "name": "registerUser",
      "outputs": [],
      "stateMutability": "nonpayable",
      "type": "function"
    },
    {
      "inputs": [
        {
          "internalType": "address",
          "name": "",
          "type": "address"
        }
      ],
      "name": "users",
      "outputs": [
        {
          "internalType": "string",
          "name": "name",
          "type": "string"
        },
        {
          "internalType": "string",
          "name": "governmentId",
          "type": "string"
        },
        {
          "internalType": "string",
          "name": "phoneNumber",
          "type": "string"
        },
        {
          "internalType": "string",
          "name": "ssmNumber",
          "type": "string"
        },
        {
          "internalType": "bool",
          "name": "isVerified",
          "type": "bool"
        }
      ],
      "stateMutability": "view",
      "type": "function"
    },
    {
      "inputs": [
        {
          "internalType": "address",
          "name": "_user",
          "type": "address"
        }
      ],
      "name": "verifyUser",
      "outputs": [],
      "stateMutability": "nonpayable",
      "type": "function"
    }
  ],
  "bytecode": "0x6080604052348015600f57600080fd5b5033600260006101000a81548173ffffffffffffffffffffffffffffffffffffffff021916908373ffffffffffffffffffffffffffffffffffffffff160217905550611126806100606000396000f3fe608060405234801561001057600080fd5b50600436106100575760003560e01c80634d8131201461005c57806393e54a5614610078578063a87430ba14610094578063ace417e0146100c8578063f851a440146100f8575b600080fd5b6100766004803603810190610071919061086d565b610116565b005b610092600480360381019061008d91906109e0565b6102c9565b005b6100ae60048036038101906100a9919061086d565b61051a565b6040516100bf959493929190610b51565b60405180910390f35b6100e260048036038101906100dd919061086d565b61077d565b6040516100ef9190610bc0565b60405180910390f35b6101006107d5565b60405161010d9190610bea565b60405180910390f35b600260009054906101000a900473ffffffffffffffffffffffffffffffffffffffff1673ffffffffffffffffffffffffffffffffffffffff163373ffffffffffffffffffffffffffffffffffffffff16146101a6576040517f08c379a000000000000000000000000000000000000000000000000000000000815260040161019d90610c51565b60405180910390fd5b6000808273ffffffffffffffffffffffffffffffffffffffff1673ffffffffffffffffffffffffffffffffffffffff16815260200190815260200160002060040160009054906101000a900460ff1615610235576040517f08c379a000000000000000000000000000000000000000000000000000000000815260040161022c90610cbd565b60405180910390fd5b60016000808373ffffffffffffffffffffffffffffffffffffffff1673ffffffffffffffffffffffffffffffffffffffff16815260200190815260200160002060040160006101000a81548160ff0219169083151502179055507fa6625d2d26e786e2f473111bea4b2fcdbbf1863d883a2359989ce3a103d2972a816040516102be9190610bea565b60405180910390a150565b6000803373ffffffffffffffffffffffffffffffffffffffff1673ffffffffffffffffffffffffffffffffffffffff16815260200190815260200160002060040160009054906101000a900460ff1615610358576040517f08c379a000000000000000000000000000000000000000000000000000000000815260040161034f90610d29565b60405180910390fd5b6001836040516103689190610d85565b908152602001604051809103902060009054906101000a900460ff16156103c4576040517f08c379a00000000000000000000000000000000000000000000000000000000081526004016103bb90610de8565b60405180910390fd5b6040518060a00160405280858152602001848152602001838152602001828152602001600015158152506000803373ffffffffffffffffffffffffffffffffffffffff1673ffffffffffffffffffffffffffffffffffffffff1681526020019081526020016000206000820151816000019081610441919061101e565b506020820151816001019081610457919061101e565b50604082015181600201908161046d919061101e565b506060820151816003019081610483919061101e565b5060808201518160040160006101000a81548160ff021916908315150217905550905050600180846040516104b89190610d85565b908152602001604051809103902060006101000a81548160ff0219169083151502179055507f54db7a5cb4735e1aac1f53db512d3390390bb6637bd30ad4bf9fc98667d9b9b93360405161050c9190610bea565b60405180910390a150505050565b600060205280600052604060002060009150905080600001805461053d90610e37565b80601f016020809104026020016040519081016040528092919081815260200182805461056990610e37565b80156105b65780601f1061058b576101008083540402835291602001916105b6565b820191906000526020600020905b81548152906001019060200180831161059957829003601f168201915b5050505050908060010180546105cb90610e37565b80601f01602080910402602001604051908101604052809291908181526020018280546105f790610e37565b80156106445780601f1061061957610100808354040283529160200191610644565b820191906000526020600020905b81548152906001019060200180831161062757829003601f168201915b50505050509080600201805461065990610e37565b80601f016020809104026020016040519081016040528092919081815260200182805461068590610e37565b80156106d25780601f106106a7576101008083540402835291602001916106d2565b820191906000526020600020905b8154815290600101906020018083116106b557829003601f168201915b5050505050908060030180546106e790610e37565b80601f016020809104026020016040519081016040528092919081815260200182805461071390610e37565b80156107605780601f1061073557610100808354040283529160200191610760565b820191906000526020600020905b81548152906001019060200180831161074357829003601f168201915b5050505050908060040160009054906101000a900460ff16905085565b60008060008373ffffffffffffffffffffffffffffffffffffffff1673ffffffffffffffffffffffffffffffffffffffff16815260200190815260200160002060040160009054906101000a900460ff169050919050565b600260009054906101000a900473ffffffffffffffffffffffffffffffffffffffff1681565b6000604051905090565b600080fd5b600080fd5b600073ffffffffffffffffffffffffffffffffffffffff82169050919050565b600061083a8261080f565b9050919050565b61084a8161082f565b811461085557600080fd5b50565b60008135905061086781610841565b92915050565b60006020828403121561088357610882610805565b5b600061089184828501610858565b91505092915050565b600080fd5b600080fd5b6000601f19601f8301169050919050565b7f4e487b7100000000000000000000000000000000000000000000000000000000600052604160045260246000fd5b6108ed826108a4565b810181811067ffffffffffffffff8211171561090c5761090b6108b5565b5b80604052505050565b600061091f6107fb565b905061092b82826108e4565b919050565b600067ffffffffffffffff82111561094b5761094a6108b5565b5b610954826108a4565b9050602081019050919050565b82818337600083830152505050565b600061098361097e84610930565b610915565b90508281526020810184848401111561099f5761099e61089f565b5b6109aa848285610961565b509392505050565b600082601f8301126109c7576109c661089a565b5b81356109d7848260208601610970565b91505092915050565b600080600080608085870312156109fa576109f9610805565b5b600085013567ffffffffffffffff811115610a1857610a1761080a565b5b610a24878288016109b2565b945050602085013567ffffffffffffffff811115610a4557610a4461080a565b5b610a51878288016109b2565b935050604085013567ffffffffffffffff811115610a7257610a7161080a565b5b610a7e878288016109b2565b925050606085013567ffffffffffffffff811115610a9f57610a9e61080a565b5b610aab878288016109b2565b91505092959194509250565b600081519050919050565b600082825260208201905092915050565b60005b83811015610af1578082015181840152602081019050610ad6565b60008484015250505050565b6000610b0882610ab7565b610b128185610ac2565b9350610b22818560208601610ad3565b610b2b816108a4565b840191505092915050565b60008115159050919050565b610b4b81610b36565b82525050565b600060a0820190508181036000830152610b6b8188610afd565b90508181036020830152610b7f8187610afd565b90508181036040830152610b938186610afd565b90508181036060830152610ba78185610afd565b9050610bb66080830184610b42565b9695505050505050565b6000602082019050610bd56000830184610b42565b92915050565b610be48161082f565b82525050565b6000602082019050610bff6000830184610bdb565b92915050565b7f4f6e6c792061646d696e2063616e207665726966792075736572730000000000600082015250565b6000610c3b601b83610ac2565b9150610c4682610c05565b602082019050919050565b60006020820190508181036000830152610c6a81610c2e565b9050919050565b7f5573657220616c72656164792076657269666965640000000000000000000000600082015250565b6000610ca7601583610ac2565b9150610cb282610c71565b602082019050919050565b60006020820190508181036000830152610cd681610c9a565b9050919050565b7f5573657220616c72656164792072656769737465726564000000000000000000600082015250565b6000610d13601783610ac2565b9150610d1e82610cdd565b602082019050919050565b60006020820190508181036000830152610d4281610d06565b9050919050565b600081905092915050565b6000610d5f82610ab7565b610d698185610d49565b9350610d79818560208601610ad3565b80840191505092915050565b6000610d918284610d54565b915081905092915050565b7f476f7665726e6d656e7420494420616c72656164792075736564000000000000600082015250565b6000610dd2601a83610ac2565b9150610ddd82610d9c565b602082019050919050565b60006020820190508181036000830152610e0181610dc5565b9050919050565b7f4e487b7100000000000000000000000000000000000000000000000000000000600052602260045260246000fd5b60006002820490506001821680610e4f57607f821691505b602082108103610e6257610e61610e08565b5b50919050565b60008190508160005260206000209050919050565b60006020601f8301049050919050565b600082821b905092915050565b600060088302610eca7fffffffffffffffffffffffffffffffffffffffffffffffffffffffffffffffff82610e8d565b610ed48683610e8d565b95508019841693508086168417925050509392505050565b6000819050919050565b6000819050919050565b6000610f1b610f16610f1184610eec565b610ef6565b610eec565b9050919050565b6000819050919050565b610f3583610f00565b610f49610f4182610f22565b848454610e9a565b825550505050565b600090565b610f5e610f51565b610f69818484610f2c565b505050565b5b81811015610f8d57610f82600082610f56565b600181019050610f6f565b5050565b601f821115610fd257610fa381610e68565b610fac84610e7d565b81016020851015610fbb578190505b610fcf610fc785610e7d565b830182610f6e565b50505b505050565b600082821c905092915050565b6000610ff560001984600802610fd7565b1980831691505092915050565b600061100e8383610fe4565b9150826002028217905092915050565b61102782610ab7565b67ffffffffffffffff8111156110405761103f6108b5565b5b61104a8254610e37565b611055828285610f91565b600060209050601f8311600181146110885760008415611076578287015190505b6110808582611002565b8655506110e8565b601f19841661109686610e68565b60005b828110156110be57848901518255600182019150602085019450602081019050611099565b868310156110db57848901516110d7601f891682610fe4565b8355505b6001600288020188555050505b50505050505056fea264697066735822122035d6bcd74b5a1943439d970cce01b7e4d7d063a2789cec02433efd81a77b377564736f6c634300081c0033",
  "linkReferences": {},
  "deployedLinkReferences": {}
}