{
  "_format": "hh-sol-artifact-1",
  "contractName": "IdentityVerification",
  "sourceName": "contracts/IdentityVerification.sol",
  "abi": [
    {
      "inputs": [],
      "stateMutability": "nonpayable",
      "type": "constructor"
    },
    {
      "anonymous": false,
      "inputs": [
        {
          "indexed": true,
          "internalType": "address",
          "name": "user",
          "type": "address"
        },
        {
          "indexed": false,
          "internalType": "string",
          "name": "name",
          "type": "string"
        },
        {
          "indexed": false,
          "internalType": "enum IdentityVerification.UserRole",
          "name": "role",
          "type": "uint8"
        }
      ],
      "name": "UserRegistered",
      "type": "event"
    },
    {
      "anonymous": false,
      "inputs": [
        {
          "indexed": true,
          "internalType": "address",
          "name": "user",
          "type": "address"
        }
      ],
      "name": "UserVerified",
      "type": "event"
    },
    {
      "inputs": [],
      "name": "admin",
      "outputs": [
        {
          "internalType": "address",
          "name": "",
          "type": "address"
        }
      ],
      "stateMutability": "view",
      "type": "function"
    },
    {
      "inputs": [
        {
          "internalType": "address",
          "name": "_user",
          "type": "address"
        }
      ],
      "name": "getUserDetails",
      "outputs": [
        {
          "internalType": "string",
          "name": "",
          "type": "string"
        },
        {
          "internalType": "string",
          "name": "",
          "type": "string"
        },
        {
          "internalType": "bool",
          "name": "",
          "type": "bool"
        },
        {
          "internalType": "enum IdentityVerification.UserRole",
          "name": "",
          "type": "uint8"
        }
      ],
      "stateMutability": "view",
      "type": "function"
    },
    {
      "inputs": [
        {
          "internalType": "address",
          "name": "_user",
          "type": "address"
        }
      ],
      "name": "getUserRole",
      "outputs": [
        {
          "internalType": "enum IdentityVerification.UserRole",
          "name": "",
          "type": "uint8"
        }
      ],
      "stateMutability": "view",
      "type": "function"
    },
    {
      "inputs": [
        {
          "internalType": "address",
          "name": "_user",
          "type": "address"
        }
      ],
      "name": "isUserVerified",
      "outputs": [
        {
          "internalType": "bool",
          "name": "",
          "type": "bool"
        }
      ],
      "stateMutability": "view",
      "type": "function"
    },
    {
      "inputs": [
        {
          "internalType": "string",
          "name": "_name",
          "type": "string"
        },
        {
          "internalType": "string",
          "name": "_idNumber",
          "type": "string"
        },
        {
          "internalType": "enum IdentityVerification.UserRole",
          "name": "_role",
          "type": "uint8"
        }
      ],
      "name": "register",
      "outputs": [],
      "stateMutability": "nonpayable",
      "type": "function"
    },
    {
      "inputs": [
        {
          "internalType": "address",
          "name": "",
          "type": "address"
        }
      ],
      "name": "users",
      "outputs": [
        {
          "internalType": "string",
          "name": "name",
          "type": "string"
        },
        {
          "internalType": "string",
          "name": "idNumber",
          "type": "string"
        },
        {
          "internalType": "bool",
          "name": "isVerified",
          "type": "bool"
        },
        {
          "internalType": "enum IdentityVerification.UserRole",
          "name": "role",
          "type": "uint8"
        }
      ],
      "stateMutability": "view",
      "type": "function"
    },
    {
      "inputs": [
        {
          "internalType": "address",
          "name": "_user",
          "type": "address"
        }
      ],
      "name": "verifyUser",
      "outputs": [],
      "stateMutability": "nonpayable",
      "type": "function"
    }
  ],
  "bytecode": "0x6080604052348015600f57600080fd5b50336000806101000a81548173ffffffffffffffffffffffffffffffffffffffff021916908373ffffffffffffffffffffffffffffffffffffffff16021790555061136a8061005f6000396000f3fe608060405234801561001057600080fd5b506004361061007d5760003560e01c8063ace417e01161005b578063ace417e014610101578063b3f90e0a14610131578063cc3d967b1461014d578063f851a440146101805761007d565b806327820851146100825780634d813120146100b2578063a87430ba146100ce575b600080fd5b61009c60048036038101906100979190610a5f565b61019e565b6040516100a99190610b03565b60405180910390f35b6100cc60048036038101906100c79190610a5f565b6101f7565b005b6100e860048036038101906100e39190610a5f565b6103b6565b6040516100f89493929190610bc9565b60405180910390f35b61011b60048036038101906101169190610a5f565b610510565b6040516101289190610c1c565b60405180910390f35b61014b60048036038101906101469190610d91565b610569565b005b61016760048036038101906101629190610a5f565b6107d7565b6040516101779493929190610bc9565b60405180910390f35b6101886109c9565b6040516101959190610e2b565b60405180910390f35b6000600160008373ffffffffffffffffffffffffffffffffffffffff1673ffffffffffffffffffffffffffffffffffffffff16815260200190815260200160002060020160019054906101000a900460ff169050919050565b60008054906101000a900473ffffffffffffffffffffffffffffffffffffffff1673ffffffffffffffffffffffffffffffffffffffff163373ffffffffffffffffffffffffffffffffffffffff1614610285576040517f08c379a000000000000000000000000000000000000000000000000000000000815260040161027c90610eb8565b60405180910390fd5b6000600160008373ffffffffffffffffffffffffffffffffffffffff1673ffffffffffffffffffffffffffffffffffffffff16815260200190815260200160002060000180546102d490610f07565b905011610316576040517f08c379a000000000000000000000000000000000000000000000000000000000815260040161030d90610f84565b60405180910390fd5b60018060008373ffffffffffffffffffffffffffffffffffffffff1673ffffffffffffffffffffffffffffffffffffffff16815260200190815260200160002060020160006101000a81548160ff0219169083151502179055508073ffffffffffffffffffffffffffffffffffffffff167fa6625d2d26e786e2f473111bea4b2fcdbbf1863d883a2359989ce3a103d2972a60405160405180910390a250565b60016020528060005260406000206000915090508060000180546103d990610f07565b80601f016020809104026020016040519081016040528092919081815260200182805461040590610f07565b80156104525780601f1061042757610100808354040283529160200191610452565b820191906000526020600020905b81548152906001019060200180831161043557829003601f168201915b50505050509080600101805461046790610f07565b80601f016020809104026020016040519081016040528092919081815260200182805461049390610f07565b80156104e05780601f106104b5576101008083540402835291602001916104e0565b820191906000526020600020905b8154815290600101906020018083116104c357829003601f168201915b5050505050908060020160009054906101000a900460ff16908060020160019054906101000a900460ff16905084565b6000600160008373ffffffffffffffffffffffffffffffffffffffff1673ffffffffffffffffffffffffffffffffffffffff16815260200190815260200160002060020160009054906101000a900460ff169050919050565b600160003373ffffffffffffffffffffffffffffffffffffffff1673ffffffffffffffffffffffffffffffffffffffff16815260200190815260200160002060020160009054906101000a900460ff16156105f9576040517f08c379a00000000000000000000000000000000000000000000000000000000081526004016105f090610ff0565b60405180910390fd5b6001600281111561060d5761060c610a8c565b5b8160028111156106205761061f610a8c565b5b148061064f575060028081111561063a57610639610a8c565b5b81600281111561064d5761064c610a8c565b5b145b61068e576040517f08c379a00000000000000000000000000000000000000000000000000000000081526004016106859061105c565b60405180910390fd5b60405180608001604052808481526020018381526020016000151581526020018260028111156106c1576106c0610a8c565b5b815250600160003373ffffffffffffffffffffffffffffffffffffffff1673ffffffffffffffffffffffffffffffffffffffff16815260200190815260200160002060008201518160000190816107189190611232565b50602082015181600101908161072e9190611232565b5060408201518160020160006101000a81548160ff02191690831515021790555060608201518160020160016101000a81548160ff0219169083600281111561077a57610779610a8c565b5b02179055509050503373ffffffffffffffffffffffffffffffffffffffff167fc2e5d5da58bd71d1a2d14cdef02a4256d971b728088f8190d067ccfbae3bd73e84836040516107ca929190611304565b60405180910390a2505050565b6060806000806000600160008773ffffffffffffffffffffffffffffffffffffffff1673ffffffffffffffffffffffffffffffffffffffff16815260200190815260200160002060405180608001604052908160008201805461083990610f07565b80601f016020809104026020016040519081016040528092919081815260200182805461086590610f07565b80156108b25780601f10610887576101008083540402835291602001916108b2565b820191906000526020600020905b81548152906001019060200180831161089557829003601f168201915b505050505081526020016001820180546108cb90610f07565b80601f01602080910402602001604051908101604052809291908181526020018280546108f790610f07565b80156109445780601f1061091957610100808354040283529160200191610944565b820191906000526020600020905b81548152906001019060200180831161092757829003601f168201915b505050505081526020016002820160009054906101000a900460ff161515151581526020016002820160019054906101000a900460ff16600281111561098d5761098c610a8c565b5b600281111561099f5761099e610a8c565b5b81525050905080600001518160200151826040015183606001519450945094509450509193509193565b60008054906101000a900473ffffffffffffffffffffffffffffffffffffffff1681565b6000604051905090565b600080fd5b600080fd5b600073ffffffffffffffffffffffffffffffffffffffff82169050919050565b6000610a2c82610a01565b9050919050565b610a3c81610a21565b8114610a4757600080fd5b50565b600081359050610a5981610a33565b92915050565b600060208284031215610a7557610a746109f7565b5b6000610a8384828501610a4a565b91505092915050565b7f4e487b7100000000000000000000000000000000000000000000000000000000600052602160045260246000fd5b60038110610acc57610acb610a8c565b5b50565b6000819050610add82610abb565b919050565b6000610aed82610acf565b9050919050565b610afd81610ae2565b82525050565b6000602082019050610b186000830184610af4565b92915050565b600081519050919050565b600082825260208201905092915050565b60005b83811015610b58578082015181840152602081019050610b3d565b60008484015250505050565b6000601f19601f8301169050919050565b6000610b8082610b1e565b610b8a8185610b29565b9350610b9a818560208601610b3a565b610ba381610b64565b840191505092915050565b60008115159050919050565b610bc381610bae565b82525050565b60006080820190508181036000830152610be38187610b75565b90508181036020830152610bf78186610b75565b9050610c066040830185610bba565b610c136060830184610af4565b95945050505050565b6000602082019050610c316000830184610bba565b92915050565b600080fd5b600080fd5b7f4e487b7100000000000000000000000000000000000000000000000000000000600052604160045260246000fd5b610c7982610b64565b810181811067ffffffffffffffff82111715610c9857610c97610c41565b5b80604052505050565b6000610cab6109ed565b9050610cb78282610c70565b919050565b600067ffffffffffffffff821115610cd757610cd6610c41565b5b610ce082610b64565b9050602081019050919050565b82818337600083830152505050565b6000610d0f610d0a84610cbc565b610ca1565b905082815260208101848484011115610d2b57610d2a610c3c565b5b610d36848285610ced565b509392505050565b600082601f830112610d5357610d52610c37565b5b8135610d63848260208601610cfc565b91505092915050565b60038110610d7957600080fd5b50565b600081359050610d8b81610d6c565b92915050565b600080600060608486031215610daa57610da96109f7565b5b600084013567ffffffffffffffff811115610dc857610dc76109fc565b5b610dd486828701610d3e565b935050602084013567ffffffffffffffff811115610df557610df46109fc565b5b610e0186828701610d3e565b9250506040610e1286828701610d7c565b9150509250925092565b610e2581610a21565b82525050565b6000602082019050610e406000830184610e1c565b92915050565b7f4f6e6c792061646d696e2063616e20706572666f726d2074686973206163746960008201527f6f6e000000000000000000000000000000000000000000000000000000000000602082015250565b6000610ea2602283610b29565b9150610ead82610e46565b604082019050919050565b60006020820190508181036000830152610ed181610e95565b9050919050565b7f4e487b7100000000000000000000000000000000000000000000000000000000600052602260045260246000fd5b60006002820490506001821680610f1f57607f821691505b602082108103610f3257610f31610ed8565b5b50919050565b7f55736572206e6f7420666f756e64000000000000000000000000000000000000600082015250565b6000610f6e600e83610b29565b9150610f7982610f38565b602082019050919050565b60006020820190508181036000830152610f9d81610f61565b9050919050565b7f5573657220616c72656164792076657269666965640000000000000000000000600082015250565b6000610fda601583610b29565b9150610fe582610fa4565b602082019050919050565b6000602082019050818103600083015261100981610fcd565b9050919050565b7f496e76616c696420726f6c650000000000000000000000000000000000000000600082015250565b6000611046600c83610b29565b915061105182611010565b602082019050919050565b6000602082019050818103600083015261107581611039565b9050919050565b60008190508160005260206000209050919050565b60006020601f8301049050919050565b600082821b905092915050565b6000600883026110de7fffffffffffffffffffffffffffffffffffffffffffffffffffffffffffffffff826110a1565b6110e886836110a1565b95508019841693508086168417925050509392505050565b6000819050919050565b6000819050919050565b600061112f61112a61112584611100565b61110a565b611100565b9050919050565b6000819050919050565b61114983611114565b61115d61115582611136565b8484546110ae565b825550505050565b600090565b611172611165565b61117d818484611140565b505050565b5b818110156111a15761119660008261116a565b600181019050611183565b5050565b601f8211156111e6576111b78161107c565b6111c084611091565b810160208510156111cf578190505b6111e36111db85611091565b830182611182565b50505b505050565b600082821c905092915050565b6000611209600019846008026111eb565b1980831691505092915050565b600061122283836111f8565b9150826002028217905092915050565b61123b82610b1e565b67ffffffffffffffff81111561125457611253610c41565b5b61125e8254610f07565b6112698282856111a5565b600060209050601f83116001811461129c576000841561128a578287015190505b6112948582611216565b8655506112fc565b601f1984166112aa8661107c565b60005b828110156112d2578489015182556001820191506020850194506020810190506112ad565b868310156112ef57848901516112eb601f8916826111f8565b8355505b6001600288020188555050505b505050505050565b6000604082019050818103600083015261131e8185610b75565b905061132d6020830184610af4565b939250505056fea2646970667358221220b37dd24ae708e7a8f14a5116b0f18309599dadb9cf0aa6c58f90b16967a6fcb264736f6c634300081c0033",
  "linkReferences": {},
  "deployedLinkReferences": {}
}