{
  "_format": "hh-sol-artifact-1",
  "contractName": "IdentityVerification",
  "sourceName": "contracts/IdentityVerification.sol",
  "abi": [
    {
      "inputs": [],
      "stateMutability": "nonpayable",
      "type": "constructor"
    },
    {
      "anonymous": false,
      "inputs": [
        {
          "indexed": true,
          "internalType": "address",
          "name": "previousAdmin",
          "type": "address"
        },
        {
          "indexed": true,
          "internalType": "address",
          "name": "newAdmin",
          "type": "address"
        }
      ],
      "name": "AdminTransferred",
      "type": "event"
    },
    {
      "anonymous": false,
      "inputs": [
        {
          "indexed": true,
          "internalType": "address",
          "name": "user",
          "type": "address"
        },
        {
          "indexed": false,
          "internalType": "string",
          "name": "name",
          "type": "string"
        },
        {
          "indexed": false,
          "internalType": "enum IdentityVerification.UserRole",
          "name": "role",
          "type": "uint8"
        }
      ],
      "name": "UserRegistered",
      "type": "event"
    },
    {
      "anonymous": false,
      "inputs": [
        {
          "indexed": true,
          "internalType": "address",
          "name": "user",
          "type": "address"
        }
      ],
      "name": "UserVerified",
      "type": "event"
    },
    {
      "inputs": [],
      "name": "admin",
      "outputs": [
        {
          "internalType": "address",
          "name": "",
          "type": "address"
        }
      ],
      "stateMutability": "view",
      "type": "function"
    },
    {
      "inputs": [
        {
          "internalType": "address",
          "name": "_user",
          "type": "address"
        }
      ],
      "name": "getUserDetails",
      "outputs": [
        {
          "internalType": "string",
          "name": "",
          "type": "string"
        },
        {
          "internalType": "string",
          "name": "",
          "type": "string"
        },
        {
          "internalType": "bool",
          "name": "",
          "type": "bool"
        },
        {
          "internalType": "enum IdentityVerification.UserRole",
          "name": "",
          "type": "uint8"
        },
        {
          "internalType": "uint256",
          "name": "",
          "type": "uint256"
        },
        {
          "internalType": "uint256",
          "name": "",
          "type": "uint256"
        }
      ],
      "stateMutability": "view",
      "type": "function"
    },
    {
      "inputs": [
        {
          "internalType": "address",
          "name": "_user",
          "type": "address"
        }
      ],
      "name": "getUserRole",
      "outputs": [
        {
          "internalType": "enum IdentityVerification.UserRole",
          "name": "",
          "type": "uint8"
        }
      ],
      "stateMutability": "view",
      "type": "function"
    },
    {
      "inputs": [
        {
          "internalType": "address",
          "name": "_user",
          "type": "address"
        }
      ],
      "name": "isUserVerified",
      "outputs": [
        {
          "internalType": "bool",
          "name": "",
          "type": "bool"
        }
      ],
      "stateMutability": "view",
      "type": "function"
    },
    {
      "inputs": [
        {
          "internalType": "string",
          "name": "_name",
          "type": "string"
        },
        {
          "internalType": "string",
          "name": "_idNumber",
          "type": "string"
        },
        {
          "internalType": "enum IdentityVerification.UserRole",
          "name": "_role",
          "type": "uint8"
        }
      ],
      "name": "register",
      "outputs": [],
      "stateMutability": "nonpayable",
      "type": "function"
    },
    {
      "inputs": [
        {
          "internalType": "address",
          "name": "_newAdmin",
          "type": "address"
        }
      ],
      "name": "transferAdmin",
      "outputs": [],
      "stateMutability": "nonpayable",
      "type": "function"
    },
    {
      "inputs": [
        {
          "internalType": "address",
          "name": "",
          "type": "address"
        }
      ],
      "name": "users",
      "outputs": [
        {
          "internalType": "string",
          "name": "name",
          "type": "string"
        },
        {
          "internalType": "string",
          "name": "idNumber",
          "type": "string"
        },
        {
          "internalType": "bool",
          "name": "isVerified",
          "type": "bool"
        },
        {
          "internalType": "enum IdentityVerification.UserRole",
          "name": "role",
          "type": "uint8"
        },
        {
          "internalType": "uint256",
          "name": "registrationDate",
          "type": "uint256"
        },
        {
          "internalType": "uint256",
          "name": "verificationDate",
          "type": "uint256"
        }
      ],
      "stateMutability": "view",
      "type": "function"
    },
    {
      "inputs": [
        {
          "internalType": "address",
          "name": "_user",
          "type": "address"
        }
      ],
      "name": "verifyUser",
      "outputs": [],
      "stateMutability": "nonpayable",
      "type": "function"
    }
  ],
  "bytecode": "0x6080604052348015600f57600080fd5b50336000806101000a81548173ffffffffffffffffffffffffffffffffffffffff021916908373ffffffffffffffffffffffffffffffffffffffff160217905550611b7e8061005f6000396000f3fe608060405234801561001057600080fd5b50600436106100885760003560e01c8063ace417e01161005b578063ace417e01461012a578063b3f90e0a1461015a578063cc3d967b14610176578063f851a440146101ab57610088565b8063278208511461008d5780634d813120146100bd57806375829def146100d9578063a87430ba146100f5575b600080fd5b6100a760048036038101906100a29190610f6d565b6101c9565b6040516100b49190611011565b60405180910390f35b6100d760048036038101906100d29190610f6d565b610222565b005b6100f360048036038101906100ee9190610f6d565b6104b8565b005b61010f600480360381019061010a9190610f6d565b610700565b604051610121969594939291906110f0565b60405180910390f35b610144600480360381019061013f9190610f6d565b610866565b604051610151919061115f565b60405180910390f35b610174600480360381019061016f91906112d4565b6108bf565b005b610190600480360381019061018b9190610f6d565b610cbe565b6040516101a2969594939291906110f0565b60405180910390f35b6101b3610ed7565b6040516101c0919061136e565b60405180910390f35b6000600160008373ffffffffffffffffffffffffffffffffffffffff1673ffffffffffffffffffffffffffffffffffffffff16815260200190815260200160002060020160019054906101000a900460ff169050919050565b60008054906101000a900473ffffffffffffffffffffffffffffffffffffffff1673ffffffffffffffffffffffffffffffffffffffff163373ffffffffffffffffffffffffffffffffffffffff16146102b0576040517f08c379a00000000000000000000000000000000000000000000000000000000081526004016102a7906113fb565b60405180910390fd5b6000600160008373ffffffffffffffffffffffffffffffffffffffff1673ffffffffffffffffffffffffffffffffffffffff16815260200190815260200160002060000180546102ff9061144a565b905011610341576040517f08c379a0000000000000000000000000000000000000000000000000000000008152600401610338906114c7565b60405180910390fd5b600160008273ffffffffffffffffffffffffffffffffffffffff1673ffffffffffffffffffffffffffffffffffffffff16815260200190815260200160002060020160009054906101000a900460ff16156103d1576040517f08c379a00000000000000000000000000000000000000000000000000000000081526004016103c890611533565b60405180910390fd5b60018060008373ffffffffffffffffffffffffffffffffffffffff1673ffffffffffffffffffffffffffffffffffffffff16815260200190815260200160002060020160006101000a81548160ff02191690831515021790555042600160008373ffffffffffffffffffffffffffffffffffffffff1673ffffffffffffffffffffffffffffffffffffffff168152602001908152602001600020600401819055508073ffffffffffffffffffffffffffffffffffffffff167fa6625d2d26e786e2f473111bea4b2fcdbbf1863d883a2359989ce3a103d2972a60405160405180910390a250565b60008054906101000a900473ffffffffffffffffffffffffffffffffffffffff1673ffffffffffffffffffffffffffffffffffffffff163373ffffffffffffffffffffffffffffffffffffffff1614610546576040517f08c379a000000000000000000000000000000000000000000000000000000000815260040161053d906113fb565b60405180910390fd5b600073ffffffffffffffffffffffffffffffffffffffff168173ffffffffffffffffffffffffffffffffffffffff16036105b5576040517f08c379a00000000000000000000000000000000000000000000000000000000081526004016105ac9061159f565b60405180910390fd5b60008054906101000a900473ffffffffffffffffffffffffffffffffffffffff1673ffffffffffffffffffffffffffffffffffffffff168173ffffffffffffffffffffffffffffffffffffffff1603610643576040517f08c379a000000000000000000000000000000000000000000000000000000000815260040161063a9061160b565b60405180910390fd5b8073ffffffffffffffffffffffffffffffffffffffff1660008054906101000a900473ffffffffffffffffffffffffffffffffffffffff1673ffffffffffffffffffffffffffffffffffffffff167ff8ccb027dfcd135e000e9d45e6cc2d662578a8825d4c45b5e32e0adf67e79ec660405160405180910390a3806000806101000a81548173ffffffffffffffffffffffffffffffffffffffff021916908373ffffffffffffffffffffffffffffffffffffffff16021790555050565b60016020528060005260406000206000915090508060000180546107239061144a565b80601f016020809104026020016040519081016040528092919081815260200182805461074f9061144a565b801561079c5780601f106107715761010080835404028352916020019161079c565b820191906000526020600020905b81548152906001019060200180831161077f57829003601f168201915b5050505050908060010180546107b19061144a565b80601f01602080910402602001604051908101604052809291908181526020018280546107dd9061144a565b801561082a5780601f106107ff5761010080835404028352916020019161082a565b820191906000526020600020905b81548152906001019060200180831161080d57829003601f168201915b5050505050908060020160009054906101000a900460ff16908060020160019054906101000a900460ff16908060030154908060040154905086565b6000600160008373ffffffffffffffffffffffffffffffffffffffff1673ffffffffffffffffffffffffffffffffffffffff16815260200190815260200160002060020160009054906101000a900460ff169050919050565b600160003373ffffffffffffffffffffffffffffffffffffffff1673ffffffffffffffffffffffffffffffffffffffff16815260200190815260200160002060020160009054906101000a900460ff161561094f576040517f08c379a000000000000000000000000000000000000000000000000000000000815260040161094690611533565b60405180910390fd5b6000835111610993576040517f08c379a000000000000000000000000000000000000000000000000000000000815260040161098a90611677565b60405180910390fd5b6064835111156109d8576040517f08c379a00000000000000000000000000000000000000000000000000000000081526004016109cf906116e3565b60405180910390fd5b6000825111610a1c576040517f08c379a0000000000000000000000000000000000000000000000000000000008152600401610a139061174f565b60405180910390fd5b600282604051610a2c91906117ab565b908152602001604051809103902060009054906101000a900460ff1615610a88576040517f08c379a0000000000000000000000000000000000000000000000000000000008152600401610a7f9061180e565b60405180910390fd5b60016002811115610a9c57610a9b610f9a565b5b816002811115610aaf57610aae610f9a565b5b1480610ade5750600280811115610ac957610ac8610f9a565b5b816002811115610adc57610adb610f9a565b5b145b610b1d576040517f08c379a0000000000000000000000000000000000000000000000000000000008152600401610b149061187a565b60405180910390fd5b6040518060c00160405280848152602001838152602001600015158152602001826002811115610b5057610b4f610f9a565b5b81526020014281526020016000815250600160003373ffffffffffffffffffffffffffffffffffffffff1673ffffffffffffffffffffffffffffffffffffffff1681526020019081526020016000206000820151816000019081610bb49190611a46565b506020820151816001019081610bca9190611a46565b5060408201518160020160006101000a81548160ff02191690831515021790555060608201518160020160016101000a81548160ff02191690836002811115610c1657610c15610f9a565b5b02179055506080820151816003015560a082015181600401559050506001600283604051610c4491906117ab565b908152602001604051809103902060006101000a81548160ff0219169083151502179055503373ffffffffffffffffffffffffffffffffffffffff167fc2e5d5da58bd71d1a2d14cdef02a4256d971b728088f8190d067ccfbae3bd73e8483604051610cb1929190611b18565b60405180910390a2505050565b6060806000806000806000600160008973ffffffffffffffffffffffffffffffffffffffff1673ffffffffffffffffffffffffffffffffffffffff1681526020019081526020016000206040518060c0016040529081600082018054610d239061144a565b80601f0160208091040260200160405190810160405280929190818152602001828054610d4f9061144a565b8015610d9c5780601f10610d7157610100808354040283529160200191610d9c565b820191906000526020600020905b815481529060010190602001808311610d7f57829003601f168201915b50505050508152602001600182018054610db59061144a565b80601f0160208091040260200160405190810160405280929190818152602001828054610de19061144a565b8015610e2e5780601f10610e0357610100808354040283529160200191610e2e565b820191906000526020600020905b815481529060010190602001808311610e1157829003601f168201915b505050505081526020016002820160009054906101000a900460ff161515151581526020016002820160019054906101000a900460ff166002811115610e7757610e76610f9a565b5b6002811115610e8957610e88610f9a565b5b8152602001600382015481526020016004820154815250509050806000015181602001518260400151836060015184608001518560a001519650965096509650965096505091939550919395565b60008054906101000a900473ffffffffffffffffffffffffffffffffffffffff1681565b6000604051905090565b600080fd5b600080fd5b600073ffffffffffffffffffffffffffffffffffffffff82169050919050565b6000610f3a82610f0f565b9050919050565b610f4a81610f2f565b8114610f5557600080fd5b50565b600081359050610f6781610f41565b92915050565b600060208284031215610f8357610f82610f05565b5b6000610f9184828501610f58565b91505092915050565b7f4e487b7100000000000000000000000000000000000000000000000000000000600052602160045260246000fd5b60038110610fda57610fd9610f9a565b5b50565b6000819050610feb82610fc9565b919050565b6000610ffb82610fdd565b9050919050565b61100b81610ff0565b82525050565b60006020820190506110266000830184611002565b92915050565b600081519050919050565b600082825260208201905092915050565b60005b8381101561106657808201518184015260208101905061104b565b60008484015250505050565b6000601f19601f8301169050919050565b600061108e8261102c565b6110988185611037565b93506110a8818560208601611048565b6110b181611072565b840191505092915050565b60008115159050919050565b6110d1816110bc565b82525050565b6000819050919050565b6110ea816110d7565b82525050565b600060c082019050818103600083015261110a8189611083565b9050818103602083015261111e8188611083565b905061112d60408301876110c8565b61113a6060830186611002565b61114760808301856110e1565b61115460a08301846110e1565b979650505050505050565b600060208201905061117460008301846110c8565b92915050565b600080fd5b600080fd5b7f4e487b7100000000000000000000000000000000000000000000000000000000600052604160045260246000fd5b6111bc82611072565b810181811067ffffffffffffffff821117156111db576111da611184565b5b80604052505050565b60006111ee610efb565b90506111fa82826111b3565b919050565b600067ffffffffffffffff82111561121a57611219611184565b5b61122382611072565b9050602081019050919050565b82818337600083830152505050565b600061125261124d846111ff565b6111e4565b90508281526020810184848401111561126e5761126d61117f565b5b611279848285611230565b509392505050565b600082601f8301126112965761129561117a565b5b81356112a684826020860161123f565b91505092915050565b600381106112bc57600080fd5b50565b6000813590506112ce816112af565b92915050565b6000806000606084860312156112ed576112ec610f05565b5b600084013567ffffffffffffffff81111561130b5761130a610f0a565b5b61131786828701611281565b935050602084013567ffffffffffffffff81111561133857611337610f0a565b5b61134486828701611281565b9250506040611355868287016112bf565b9150509250925092565b61136881610f2f565b82525050565b6000602082019050611383600083018461135f565b92915050565b7f4f6e6c792061646d696e2063616e20706572666f726d2074686973206163746960008201527f6f6e000000000000000000000000000000000000000000000000000000000000602082015250565b60006113e5602283611037565b91506113f082611389565b604082019050919050565b60006020820190508181036000830152611414816113d8565b9050919050565b7f4e487b7100000000000000000000000000000000000000000000000000000000600052602260045260246000fd5b6000600282049050600182168061146257607f821691505b6020821081036114755761147461141b565b5b50919050565b7f55736572206e6f7420666f756e64000000000000000000000000000000000000600082015250565b60006114b1600e83611037565b91506114bc8261147b565b602082019050919050565b600060208201905081810360008301526114e0816114a4565b9050919050565b7f5573657220616c72656164792076657269666965640000000000000000000000600082015250565b600061151d601583611037565b9150611528826114e7565b602082019050919050565b6000602082019050818103600083015261154c81611510565b9050919050565b7f496e76616c696420616464726573730000000000000000000000000000000000600082015250565b6000611589600f83611037565b915061159482611553565b602082019050919050565b600060208201905081810360008301526115b88161157c565b9050919050565b7f416c72656164792061646d696e00000000000000000000000000000000000000600082015250565b60006115f5600d83611037565b9150611600826115bf565b602082019050919050565b60006020820190508181036000830152611624816115e8565b9050919050565b7f4e616d652063616e6e6f7420626520656d707479000000000000000000000000600082015250565b6000611661601483611037565b915061166c8261162b565b602082019050919050565b6000602082019050818103600083015261169081611654565b9050919050565b7f4e616d6520746f6f206c6f6e6700000000000000000000000000000000000000600082015250565b60006116cd600d83611037565b91506116d882611697565b602082019050919050565b600060208201905081810360008301526116fc816116c0565b9050919050565b7f4944206e756d6265722063616e6e6f7420626520656d70747900000000000000600082015250565b6000611739601983611037565b915061174482611703565b602082019050919050565b600060208201905081810360008301526117688161172c565b9050919050565b600081905092915050565b60006117858261102c565b61178f818561176f565b935061179f818560208601611048565b80840191505092915050565b60006117b7828461177a565b915081905092915050565b7f4944206e756d62657220616c7265616479207265676973746572656400000000600082015250565b60006117f8601c83611037565b9150611803826117c2565b602082019050919050565b60006020820190508181036000830152611827816117eb565b9050919050565b7f496e76616c696420726f6c650000000000000000000000000000000000000000600082015250565b6000611864600c83611037565b915061186f8261182e565b602082019050919050565b6000602082019050818103600083015261189381611857565b9050919050565b60008190508160005260206000209050919050565b60006020601f8301049050919050565b600082821b905092915050565b6000600883026118fc7fffffffffffffffffffffffffffffffffffffffffffffffffffffffffffffffff826118bf565b61190686836118bf565b95508019841693508086168417925050509392505050565b6000819050919050565b600061194361193e611939846110d7565b61191e565b6110d7565b9050919050565b6000819050919050565b61195d83611928565b6119716119698261194a565b8484546118cc565b825550505050565b600090565b611986611979565b611991818484611954565b505050565b5b818110156119b5576119aa60008261197e565b600181019050611997565b5050565b601f8211156119fa576119cb8161189a565b6119d4846118af565b810160208510156119e3578190505b6119f76119ef856118af565b830182611996565b50505b505050565b600082821c905092915050565b6000611a1d600019846008026119ff565b1980831691505092915050565b6000611a368383611a0c565b9150826002028217905092915050565b611a4f8261102c565b67ffffffffffffffff811115611a6857611a67611184565b5b611a72825461144a565b611a7d8282856119b9565b600060209050601f831160018114611ab05760008415611a9e578287015190505b611aa88582611a2a565b865550611b10565b601f198416611abe8661189a565b60005b82811015611ae657848901518255600182019150602085019450602081019050611ac1565b86831015611b035784890151611aff601f891682611a0c565b8355505b6001600288020188555050505b505050505050565b60006040820190508181036000830152611b328185611083565b9050611b416020830184611002565b939250505056fea2646970667358221220f1d5a0701ee036379e0c210ff45252ba045e19704e58c06456344bbd534ef12764736f6c634300081c0033",
  "linkReferences": {},
  "deployedLinkReferences": {}
}