{
  "_format": "hh-sol-artifact-1",
  "contractName": "IdentityVerification",
  "sourceName": "contracts/IdentityVerification.sol",
  "abi": [
    {
      "inputs": [],
      "stateMutability": "nonpayable",
      "type": "constructor"
    },
    {
      "anonymous": false,
      "inputs": [
        {
          "indexed": true,
          "internalType": "address",
          "name": "user",
          "type": "address"
        },
        {
          "indexed": false,
          "internalType": "string",
          "name": "name",
          "type": "string"
        },
        {
          "indexed": false,
          "internalType": "enum IdentityVerification.UserRole",
          "name": "role",
          "type": "uint8"
        }
      ],
      "name": "UserRegistered",
      "type": "event"
    },
    {
      "anonymous": false,
      "inputs": [
        {
          "indexed": true,
          "internalType": "address",
          "name": "user",
          "type": "address"
        }
      ],
      "name": "UserVerified",
      "type": "event"
    },
    {
      "inputs": [],
      "name": "admin",
      "outputs": [
        {
          "internalType": "address",
          "name": "",
          "type": "address"
        }
      ],
      "stateMutability": "view",
      "type": "function"
    },
    {
      "inputs": [
        {
          "internalType": "address",
          "name": "_user",
          "type": "address"
        }
      ],
      "name": "getUserDetails",
      "outputs": [
        {
          "internalType": "string",
          "name": "",
          "type": "string"
        },
        {
          "internalType": "string",
          "name": "",
          "type": "string"
        },
        {
          "internalType": "bool",
          "name": "",
          "type": "bool"
        },
        {
          "internalType": "enum IdentityVerification.UserRole",
          "name": "",
          "type": "uint8"
        },
        {
          "internalType": "uint256",
          "name": "",
          "type": "uint256"
        },
        {
          "internalType": "uint256",
          "name": "",
          "type": "uint256"
        }
      ],
      "stateMutability": "view",
      "type": "function"
    },
    {
      "inputs": [
        {
          "internalType": "address",
          "name": "_user",
          "type": "address"
        }
      ],
      "name": "getUserRole",
      "outputs": [
        {
          "internalType": "enum IdentityVerification.UserRole",
          "name": "",
          "type": "uint8"
        }
      ],
      "stateMutability": "view",
      "type": "function"
    },
    {
      "inputs": [
        {
          "internalType": "address",
          "name": "_user",
          "type": "address"
        }
      ],
      "name": "isUserVerified",
      "outputs": [
        {
          "internalType": "bool",
          "name": "",
          "type": "bool"
        }
      ],
      "stateMutability": "view",
      "type": "function"
    },
    {
      "inputs": [
        {
          "internalType": "string",
          "name": "_name",
          "type": "string"
        },
        {
          "internalType": "string",
          "name": "_idNumber",
          "type": "string"
        },
        {
          "internalType": "enum IdentityVerification.UserRole",
          "name": "_role",
          "type": "uint8"
        }
      ],
      "name": "register",
      "outputs": [],
      "stateMutability": "nonpayable",
      "type": "function"
    },
    {
      "inputs": [
        {
          "internalType": "address",
          "name": "",
          "type": "address"
        }
      ],
      "name": "users",
      "outputs": [
        {
          "internalType": "string",
          "name": "name",
          "type": "string"
        },
        {
          "internalType": "string",
          "name": "idNumber",
          "type": "string"
        },
        {
          "internalType": "bool",
          "name": "isVerified",
          "type": "bool"
        },
        {
          "internalType": "enum IdentityVerification.UserRole",
          "name": "role",
          "type": "uint8"
        },
        {
          "internalType": "uint256",
          "name": "registrationDate",
          "type": "uint256"
        },
        {
          "internalType": "uint256",
          "name": "verificationDate",
          "type": "uint256"
        }
      ],
      "stateMutability": "view",
      "type": "function"
    },
    {
      "inputs": [
        {
          "internalType": "address",
          "name": "_user",
          "type": "address"
        }
      ],
      "name": "verifyUser",
      "outputs": [],
      "stateMutability": "nonpayable",
      "type": "function"
    }
  ],
  "bytecode": "0x60a0604052348015600f57600080fd5b503373ffffffffffffffffffffffffffffffffffffffff1660808173ffffffffffffffffffffffffffffffffffffffff168152505060805161182e610066600039600081816101fc0152610c61015261182e6000f3fe608060405234801561001057600080fd5b506004361061007d5760003560e01c8063ace417e01161005b578063ace417e014610103578063b3f90e0a14610133578063cc3d967b1461014f578063f851a440146101845761007d565b806327820851146100825780634d813120146100b2578063a87430ba146100ce575b600080fd5b61009c60048036038101906100979190610cf5565b6101a2565b6040516100a99190610d99565b60405180910390f35b6100cc60048036038101906100c79190610cf5565b6101fa565b005b6100e860048036038101906100e39190610cf5565b61048d565b6040516100fa96959493929190610e78565b60405180910390f35b61011d60048036038101906101189190610cf5565b6105f3565b60405161012a9190610ee7565b60405180910390f35b61014d6004803603810190610148919061105c565b61064b565b005b61016960048036038101906101649190610cf5565b610a47565b60405161017b96959493929190610e78565b60405180910390f35b61018c610c5f565b60405161019991906110f6565b60405180910390f35b60008060008373ffffffffffffffffffffffffffffffffffffffff1673ffffffffffffffffffffffffffffffffffffffff16815260200190815260200160002060020160019054906101000a900460ff169050919050565b7f000000000000000000000000000000000000000000000000000000000000000073ffffffffffffffffffffffffffffffffffffffff163373ffffffffffffffffffffffffffffffffffffffff1614610288576040517f08c379a000000000000000000000000000000000000000000000000000000000815260040161027f90611183565b60405180910390fd5b60008060008373ffffffffffffffffffffffffffffffffffffffff1673ffffffffffffffffffffffffffffffffffffffff16815260200190815260200160002060000180546102d6906111d2565b905011610318576040517f08c379a000000000000000000000000000000000000000000000000000000000815260040161030f9061124f565b60405180910390fd5b6000808273ffffffffffffffffffffffffffffffffffffffff1673ffffffffffffffffffffffffffffffffffffffff16815260200190815260200160002060020160009054906101000a900460ff16156103a7576040517f08c379a000000000000000000000000000000000000000000000000000000000815260040161039e906112bb565b60405180910390fd5b60016000808373ffffffffffffffffffffffffffffffffffffffff1673ffffffffffffffffffffffffffffffffffffffff16815260200190815260200160002060020160006101000a81548160ff021916908315150217905550426000808373ffffffffffffffffffffffffffffffffffffffff1673ffffffffffffffffffffffffffffffffffffffff168152602001908152602001600020600401819055508073ffffffffffffffffffffffffffffffffffffffff167fa6625d2d26e786e2f473111bea4b2fcdbbf1863d883a2359989ce3a103d2972a60405160405180910390a250565b60006020528060005260406000206000915090508060000180546104b0906111d2565b80601f01602080910402602001604051908101604052809291908181526020018280546104dc906111d2565b80156105295780601f106104fe57610100808354040283529160200191610529565b820191906000526020600020905b81548152906001019060200180831161050c57829003601f168201915b50505050509080600101805461053e906111d2565b80601f016020809104026020016040519081016040528092919081815260200182805461056a906111d2565b80156105b75780601f1061058c576101008083540402835291602001916105b7565b820191906000526020600020905b81548152906001019060200180831161059a57829003601f168201915b5050505050908060020160009054906101000a900460ff16908060020160019054906101000a900460ff16908060030154908060040154905086565b60008060008373ffffffffffffffffffffffffffffffffffffffff1673ffffffffffffffffffffffffffffffffffffffff16815260200190815260200160002060020160009054906101000a900460ff169050919050565b6000803373ffffffffffffffffffffffffffffffffffffffff1673ffffffffffffffffffffffffffffffffffffffff16815260200190815260200160002060020160009054906101000a900460ff16156106da576040517f08c379a00000000000000000000000000000000000000000000000000000000081526004016106d1906112bb565b60405180910390fd5b600083511161071e576040517f08c379a000000000000000000000000000000000000000000000000000000000815260040161071590611327565b60405180910390fd5b606483511115610763576040517f08c379a000000000000000000000000000000000000000000000000000000000815260040161075a90611393565b60405180910390fd5b60008251116107a7576040517f08c379a000000000000000000000000000000000000000000000000000000000815260040161079e906113ff565b60405180910390fd5b6001826040516107b7919061145b565b908152602001604051809103902060009054906101000a900460ff1615610813576040517f08c379a000000000000000000000000000000000000000000000000000000000815260040161080a906114be565b60405180910390fd5b6001600281111561082757610826610d22565b5b81600281111561083a57610839610d22565b5b1480610869575060028081111561085457610853610d22565b5b81600281111561086757610866610d22565b5b145b6108a8576040517f08c379a000000000000000000000000000000000000000000000000000000000815260040161089f9061152a565b60405180910390fd5b6040518060c001604052808481526020018381526020016000151581526020018260028111156108db576108da610d22565b5b815260200142815260200160008152506000803373ffffffffffffffffffffffffffffffffffffffff1673ffffffffffffffffffffffffffffffffffffffff168152602001908152602001600020600082015181600001908161093e91906116f6565b50602082015181600101908161095491906116f6565b5060408201518160020160006101000a81548160ff02191690831515021790555060608201518160020160016101000a81548160ff021916908360028111156109a05761099f610d22565b5b02179055506080820151816003015560a08201518160040155905050600180836040516109cd919061145b565b908152602001604051809103902060006101000a81548160ff0219169083151502179055503373ffffffffffffffffffffffffffffffffffffffff167fc2e5d5da58bd71d1a2d14cdef02a4256d971b728088f8190d067ccfbae3bd73e8483604051610a3a9291906117c8565b60405180910390a2505050565b60608060008060008060008060008973ffffffffffffffffffffffffffffffffffffffff1673ffffffffffffffffffffffffffffffffffffffff1681526020019081526020016000206040518060c0016040529081600082018054610aab906111d2565b80601f0160208091040260200160405190810160405280929190818152602001828054610ad7906111d2565b8015610b245780601f10610af957610100808354040283529160200191610b24565b820191906000526020600020905b815481529060010190602001808311610b0757829003601f168201915b50505050508152602001600182018054610b3d906111d2565b80601f0160208091040260200160405190810160405280929190818152602001828054610b69906111d2565b8015610bb65780601f10610b8b57610100808354040283529160200191610bb6565b820191906000526020600020905b815481529060010190602001808311610b9957829003601f168201915b505050505081526020016002820160009054906101000a900460ff161515151581526020016002820160019054906101000a900460ff166002811115610bff57610bfe610d22565b5b6002811115610c1157610c10610d22565b5b8152602001600382015481526020016004820154815250509050806000015181602001518260400151836060015184608001518560a001519650965096509650965096505091939550919395565b7f000000000000000000000000000000000000000000000000000000000000000081565b6000604051905090565b600080fd5b600080fd5b600073ffffffffffffffffffffffffffffffffffffffff82169050919050565b6000610cc282610c97565b9050919050565b610cd281610cb7565b8114610cdd57600080fd5b50565b600081359050610cef81610cc9565b92915050565b600060208284031215610d0b57610d0a610c8d565b5b6000610d1984828501610ce0565b91505092915050565b7f4e487b7100000000000000000000000000000000000000000000000000000000600052602160045260246000fd5b60038110610d6257610d61610d22565b5b50565b6000819050610d7382610d51565b919050565b6000610d8382610d65565b9050919050565b610d9381610d78565b82525050565b6000602082019050610dae6000830184610d8a565b92915050565b600081519050919050565b600082825260208201905092915050565b60005b83811015610dee578082015181840152602081019050610dd3565b60008484015250505050565b6000601f19601f8301169050919050565b6000610e1682610db4565b610e208185610dbf565b9350610e30818560208601610dd0565b610e3981610dfa565b840191505092915050565b60008115159050919050565b610e5981610e44565b82525050565b6000819050919050565b610e7281610e5f565b82525050565b600060c0820190508181036000830152610e928189610e0b565b90508181036020830152610ea68188610e0b565b9050610eb56040830187610e50565b610ec26060830186610d8a565b610ecf6080830185610e69565b610edc60a0830184610e69565b979650505050505050565b6000602082019050610efc6000830184610e50565b92915050565b600080fd5b600080fd5b7f4e487b7100000000000000000000000000000000000000000000000000000000600052604160045260246000fd5b610f4482610dfa565b810181811067ffffffffffffffff82111715610f6357610f62610f0c565b5b80604052505050565b6000610f76610c83565b9050610f828282610f3b565b919050565b600067ffffffffffffffff821115610fa257610fa1610f0c565b5b610fab82610dfa565b9050602081019050919050565b82818337600083830152505050565b6000610fda610fd584610f87565b610f6c565b905082815260208101848484011115610ff657610ff5610f07565b5b611001848285610fb8565b509392505050565b600082601f83011261101e5761101d610f02565b5b813561102e848260208601610fc7565b91505092915050565b6003811061104457600080fd5b50565b60008135905061105681611037565b92915050565b60008060006060848603121561107557611074610c8d565b5b600084013567ffffffffffffffff81111561109357611092610c92565b5b61109f86828701611009565b935050602084013567ffffffffffffffff8111156110c0576110bf610c92565b5b6110cc86828701611009565b92505060406110dd86828701611047565b9150509250925092565b6110f081610cb7565b82525050565b600060208201905061110b60008301846110e7565b92915050565b7f4f6e6c792061646d696e2063616e20706572666f726d2074686973206163746960008201527f6f6e000000000000000000000000000000000000000000000000000000000000602082015250565b600061116d602283610dbf565b915061117882611111565b604082019050919050565b6000602082019050818103600083015261119c81611160565b9050919050565b7f4e487b7100000000000000000000000000000000000000000000000000000000600052602260045260246000fd5b600060028204905060018216806111ea57607f821691505b6020821081036111fd576111fc6111a3565b5b50919050565b7f55736572206e6f7420666f756e64000000000000000000000000000000000000600082015250565b6000611239600e83610dbf565b915061124482611203565b602082019050919050565b600060208201905081810360008301526112688161122c565b9050919050565b7f5573657220616c72656164792076657269666965640000000000000000000000600082015250565b60006112a5601583610dbf565b91506112b08261126f565b602082019050919050565b600060208201905081810360008301526112d481611298565b9050919050565b7f4e616d652063616e6e6f7420626520656d707479000000000000000000000000600082015250565b6000611311601483610dbf565b915061131c826112db565b602082019050919050565b6000602082019050818103600083015261134081611304565b9050919050565b7f4e616d6520746f6f206c6f6e6700000000000000000000000000000000000000600082015250565b600061137d600d83610dbf565b915061138882611347565b602082019050919050565b600060208201905081810360008301526113ac81611370565b9050919050565b7f4944206e756d6265722063616e6e6f7420626520656d70747900000000000000600082015250565b60006113e9601983610dbf565b91506113f4826113b3565b602082019050919050565b60006020820190508181036000830152611418816113dc565b9050919050565b600081905092915050565b600061143582610db4565b61143f818561141f565b935061144f818560208601610dd0565b80840191505092915050565b6000611467828461142a565b915081905092915050565b7f4944206e756d62657220616c7265616479207265676973746572656400000000600082015250565b60006114a8601c83610dbf565b91506114b382611472565b602082019050919050565b600060208201905081810360008301526114d78161149b565b9050919050565b7f496e76616c696420726f6c650000000000000000000000000000000000000000600082015250565b6000611514600c83610dbf565b915061151f826114de565b602082019050919050565b6000602082019050818103600083015261154381611507565b9050919050565b60008190508160005260206000209050919050565b60006020601f8301049050919050565b600082821b905092915050565b6000600883026115ac7fffffffffffffffffffffffffffffffffffffffffffffffffffffffffffffffff8261156f565b6115b6868361156f565b95508019841693508086168417925050509392505050565b6000819050919050565b60006115f36115ee6115e984610e5f565b6115ce565b610e5f565b9050919050565b6000819050919050565b61160d836115d8565b611621611619826115fa565b84845461157c565b825550505050565b600090565b611636611629565b611641818484611604565b505050565b5b818110156116655761165a60008261162e565b600181019050611647565b5050565b601f8211156116aa5761167b8161154a565b6116848461155f565b81016020851015611693578190505b6116a761169f8561155f565b830182611646565b50505b505050565b600082821c905092915050565b60006116cd600019846008026116af565b1980831691505092915050565b60006116e683836116bc565b9150826002028217905092915050565b6116ff82610db4565b67ffffffffffffffff81111561171857611717610f0c565b5b61172282546111d2565b61172d828285611669565b600060209050601f831160018114611760576000841561174e578287015190505b61175885826116da565b8655506117c0565b601f19841661176e8661154a565b60005b8281101561179657848901518255600182019150602085019450602081019050611771565b868310156117b357848901516117af601f8916826116bc565b8355505b6001600288020188555050505b505050505050565b600060408201905081810360008301526117e28185610e0b565b90506117f16020830184610d8a565b939250505056fea264697066735822122075478ae5cd719829fda33796b0586fd381add956b48ffee7fc41b28c8eb5ec7c64736f6c634300081c0033",
  "linkReferences": {},
  "deployedLinkReferences": {}
}