{
  "_format": "hh-sol-artifact-1",
  "contractName": "Marketplace",
  "sourceName": "contracts/Marketplace.sol",
  "abi": [
    {
      "inputs": [
        {
          "internalType": "address",
          "name": "_identityContract",
          "type": "address"
        }
      ],
      "stateMutability": "nonpayable",
      "type": "constructor"
    },
    {
      "anonymous": false,
      "inputs": [
        {
          "indexed": false,
          "internalType": "address",
          "name": "recipient",
          "type": "address"
        },
        {
          "indexed": false,
          "internalType": "uint256",
          "name": "amount",
          "type": "uint256"
        }
      ],
      "name": "FundsWithdrawn",
      "type": "event"
    },
    {
      "anonymous": false,
      "inputs": [
        {
          "indexed": true,
          "internalType": "uint256",
          "name": "productId",
          "type": "uint256"
        },
        {
          "indexed": false,
          "internalType": "string",
          "name": "name",
          "type": "string"
        },
        {
          "indexed": false,
          "internalType": "uint256",
          "name": "price",
          "type": "uint256"
        },
        {
          "indexed": false,
          "internalType": "address",
          "name": "seller",
          "type": "address"
        }
      ],
      "name": "ProductListed",
      "type": "event"
    },
    {
      "anonymous": false,
      "inputs": [
        {
          "indexed": true,
          "internalType": "uint256",
          "name": "productId",
          "type": "uint256"
        },
        {
          "indexed": false,
          "internalType": "address",
          "name": "buyer",
          "type": "address"
        },
        {
          "indexed": false,
          "internalType": "uint256",
          "name": "price",
          "type": "uint256"
        }
      ],
      "name": "ProductPurchased",
      "type": "event"
    },
    {
      "anonymous": false,
      "inputs": [
        {
          "indexed": true,
          "internalType": "uint256",
          "name": "productId",
          "type": "uint256"
        }
      ],
      "name": "ProductRemoved",
      "type": "event"
    },
    {
      "inputs": [
        {
          "internalType": "uint256",
          "name": "_productId",
          "type": "uint256"
        }
      ],
      "name": "buyProduct",
      "outputs": [],
      "stateMutability": "payable",
      "type": "function"
    },
    {
      "inputs": [],
      "name": "getActiveProducts",
      "outputs": [
        {
          "components": [
            {
              "internalType": "string",
              "name": "name",
              "type": "string"
            },
            {
              "internalType": "uint256",
              "name": "price",
              "type": "uint256"
            },
            {
              "internalType": "address",
              "name": "seller",
              "type": "address"
            },
            {
              "internalType": "bool",
              "name": "sold",
              "type": "bool"
            },
            {
              "internalType": "uint256",
              "name": "listingTimestamp",
              "type": "uint256"
            }
          ],
          "internalType": "struct Marketplace.Product[]",
          "name": "",
          "type": "tuple[]"
        }
      ],
      "stateMutability": "view",
      "type": "function"
    },
    {
      "inputs": [],
      "name": "getProductCount",
      "outputs": [
        {
          "internalType": "uint256",
          "name": "",
          "type": "uint256"
        }
      ],
      "stateMutability": "view",
      "type": "function"
    },
    {
      "inputs": [],
      "name": "identityContract",
      "outputs": [
        {
          "internalType": "contract IdentityVerification",
          "name": "",
          "type": "address"
        }
      ],
      "stateMutability": "view",
      "type": "function"
    },
    {
      "inputs": [
        {
          "internalType": "string",
          "name": "_name",
          "type": "string"
        },
        {
          "internalType": "uint256",
          "name": "_price",
          "type": "uint256"
        }
      ],
      "name": "listProduct",
      "outputs": [],
      "stateMutability": "nonpayable",
      "type": "function"
    },
    {
      "inputs": [
        {
          "internalType": "uint256",
          "name": "",
          "type": "uint256"
        }
      ],
      "name": "productBuyers",
      "outputs": [
        {
          "internalType": "address",
          "name": "",
          "type": "address"
        }
      ],
      "stateMutability": "view",
      "type": "function"
    },
    {
      "inputs": [
        {
          "internalType": "uint256",
          "name": "",
          "type": "uint256"
        }
      ],
      "name": "products",
      "outputs": [
        {
          "internalType": "string",
          "name": "name",
          "type": "string"
        },
        {
          "internalType": "uint256",
          "name": "price",
          "type": "uint256"
        },
        {
          "internalType": "address",
          "name": "seller",
          "type": "address"
        },
        {
          "internalType": "bool",
          "name": "sold",
          "type": "bool"
        },
        {
          "internalType": "uint256",
          "name": "listingTimestamp",
          "type": "uint256"
        }
      ],
      "stateMutability": "view",
      "type": "function"
    },
    {
      "inputs": [
        {
          "internalType": "uint256",
          "name": "_productId",
          "type": "uint256"
        }
      ],
      "name": "removeProduct",
      "outputs": [],
      "stateMutability": "nonpayable",
      "type": "function"
    }
  ],
  "bytecode": "0x60a060405234801561001057600080fd5b506040516124893803806124898339818101604052810190610032919061013e565b600073ffffffffffffffffffffffffffffffffffffffff168173ffffffffffffffffffffffffffffffffffffffff16036100a1576040517f08c379a0000000000000000000000000000000000000000000000000000000008152600401610098906101c8565b60405180910390fd5b8073ffffffffffffffffffffffffffffffffffffffff1660808173ffffffffffffffffffffffffffffffffffffffff1681525050506101e8565b600080fd5b600073ffffffffffffffffffffffffffffffffffffffff82169050919050565b600061010b826100e0565b9050919050565b61011b81610100565b811461012657600080fd5b50565b60008151905061013881610112565b92915050565b600060208284031215610154576101536100db565b5b600061016284828501610129565b91505092915050565b600082825260208201905092915050565b7f496e76616c6964206964656e7469747920636f6e747261637400000000000000600082015250565b60006101b260198361016b565b91506101bd8261017c565b602082019050919050565b600060208201905081810360008301526101e1816101a5565b9050919050565b608051612263610226600039600081816102f401528181610487015281816105a60152818161069301528181610a990152610b8501526122636000f3fe60806040526004361061007b5760003560e01c80637acc0b201161004e5780637acc0b201461013c5780638642269e1461017d57806389a1b52314610199578063ca0f46c0146101c25761007b565b80630a271a74146100805780634a348da9146100bd5780635ee95cae146100e857806367031bae14610111575b600080fd5b34801561008c57600080fd5b506100a760048036038101906100a291906111c2565b6101ed565b6040516100b49190611230565b60405180910390f35b3480156100c957600080fd5b506100d2610220565b6040516100df919061125a565b60405180910390f35b3480156100f457600080fd5b5061010f600480360381019061010a91906111c2565b61022c565b005b34801561011d57600080fd5b50610126610485565b60405161013391906112d4565b60405180910390f35b34801561014857600080fd5b50610163600480360381019061015e91906111c2565b6104a9565b60405161017495949392919061139a565b60405180910390f35b610197600480360381019061019291906111c2565b6105a4565b005b3480156101a557600080fd5b506101c060048036038101906101bb9190611529565b610a97565b005b3480156101ce57600080fd5b506101d7610e45565b6040516101e49190611734565b60405180910390f35b60016020528060005260406000206000915054906101000a900473ffffffffffffffffffffffffffffffffffffffff1681565b60008080549050905090565b806000805490508110610274576040517f08c379a000000000000000000000000000000000000000000000000000000000815260040161026b906117a2565b60405180910390fd5b6000808381548110610289576102886117c2565b5b906000526020600020906004020190508060020160009054906101000a900473ffffffffffffffffffffffffffffffffffffffff1673ffffffffffffffffffffffffffffffffffffffff163373ffffffffffffffffffffffffffffffffffffffff16148061034257507f000000000000000000000000000000000000000000000000000000000000000073ffffffffffffffffffffffffffffffffffffffff163373ffffffffffffffffffffffffffffffffffffffff16145b610381576040517f08c379a00000000000000000000000000000000000000000000000000000000081526004016103789061183d565b60405180910390fd5b8060020160149054906101000a900460ff16156103d3576040517f08c379a00000000000000000000000000000000000000000000000000000000081526004016103ca906118a9565b60405180910390fd5b600083815481106103e7576103e66117c2565b5b90600052602060002090600402016000808201600061040691906110d4565b60018201600090556002820160006101000a81549073ffffffffffffffffffffffffffffffffffffffff02191690556002820160146101000a81549060ff021916905560038201600090555050827f07015631cff457b5b13492c2045e70c6305a0a4aa773e432e79abbe2cf52c1eb60405160405180910390a2505050565b7f000000000000000000000000000000000000000000000000000000000000000081565b600081815481106104b957600080fd5b90600052602060002090600402016000915090508060000180546104dc906118f8565b80601f0160208091040260200160405190810160405280929190818152602001828054610508906118f8565b80156105555780601f1061052a57610100808354040283529160200191610555565b820191906000526020600020905b81548152906001019060200180831161053857829003601f168201915b5050505050908060010154908060020160009054906101000a900473ffffffffffffffffffffffffffffffffffffffff16908060020160149054906101000a900460ff16908060030154905085565b7f000000000000000000000000000000000000000000000000000000000000000073ffffffffffffffffffffffffffffffffffffffff1663ace417e0336040518263ffffffff1660e01b81526004016105fd9190611230565b602060405180830381865afa15801561061a573d6000803e3d6000fd5b505050506040513d601f19601f8201168201806040525081019061063e9190611955565b61067d576040517f08c379a0000000000000000000000000000000000000000000000000000000008152600401610674906119ce565b60405180910390fd5b60016002811115610691576106906119ee565b5b7f000000000000000000000000000000000000000000000000000000000000000073ffffffffffffffffffffffffffffffffffffffff166327820851336040518263ffffffff1660e01b81526004016106ea9190611230565b602060405180830381865afa158015610707573d6000803e3d6000fd5b505050506040513d601f19601f8201168201806040525081019061072b9190611a42565b600281111561073d5761073c6119ee565b5b1461077d576040517f08c379a000000000000000000000000000000000000000000000000000000000815260040161077490611abb565b60405180910390fd5b8060008054905081106107c5576040517f08c379a00000000000000000000000000000000000000000000000000000000081526004016107bc906117a2565b60405180910390fd5b60008083815481106107da576107d96117c2565b5b906000526020600020906004020190508060020160149054906101000a900460ff161561083c576040517f08c379a000000000000000000000000000000000000000000000000000000000815260040161083390611b27565b60405180910390fd5b80600101543414610882576040517f08c379a000000000000000000000000000000000000000000000000000000000815260040161087990611b93565b60405180910390fd5b8060020160009054906101000a900473ffffffffffffffffffffffffffffffffffffffff1673ffffffffffffffffffffffffffffffffffffffff163373ffffffffffffffffffffffffffffffffffffffff1603610914576040517f08c379a000000000000000000000000000000000000000000000000000000000815260040161090b90611c25565b60405180910390fd5b60018160020160146101000a81548160ff021916908315150217905550336001600085815260200190815260200160002060006101000a81548173ffffffffffffffffffffffffffffffffffffffff021916908373ffffffffffffffffffffffffffffffffffffffff16021790555060008160020160009054906101000a900473ffffffffffffffffffffffffffffffffffffffff1673ffffffffffffffffffffffffffffffffffffffff16346040516109cd90611c76565b60006040518083038185875af1925050503d8060008114610a0a576040519150601f19603f3d011682016040523d82523d6000602084013e610a0f565b606091505b5050905080610a53576040517f08c379a0000000000000000000000000000000000000000000000000000000008152600401610a4a90611cd7565b60405180910390fd5b837fa530f889d7f1bd9a73028e48944ca013ab2c6624a31e3fa26f923f4bb719abd5338460010154604051610a89929190611cf7565b60405180910390a250505050565b7f000000000000000000000000000000000000000000000000000000000000000073ffffffffffffffffffffffffffffffffffffffff1663ace417e0336040518263ffffffff1660e01b8152600401610af09190611230565b602060405180830381865afa158015610b0d573d6000803e3d6000fd5b505050506040513d601f19601f82011682018060405250810190610b319190611955565b610b70576040517f08c379a0000000000000000000000000000000000000000000000000000000008152600401610b6790611d6c565b60405180910390fd5b600280811115610b8357610b826119ee565b5b7f000000000000000000000000000000000000000000000000000000000000000073ffffffffffffffffffffffffffffffffffffffff166327820851336040518263ffffffff1660e01b8152600401610bdc9190611230565b602060405180830381865afa158015610bf9573d6000803e3d6000fd5b505050506040513d601f19601f82011682018060405250810190610c1d9190611a42565b6002811115610c2f57610c2e6119ee565b5b14610c6f576040517f08c379a0000000000000000000000000000000000000000000000000000000008152600401610c6690611dd8565b60405180910390fd5b6000825111610cb3576040517f08c379a0000000000000000000000000000000000000000000000000000000008152600401610caa90611e44565b60405180910390fd5b60008111610cf6576040517f08c379a0000000000000000000000000000000000000000000000000000000008152600401610ced90611eb0565b60405180910390fd5b60006040518060a001604052808481526020018381526020013373ffffffffffffffffffffffffffffffffffffffff1681526020016000151581526020014281525090806001815401808255809150506001900390600052602060002090600402016000909190919091506000820151816000019081610d769190612072565b506020820151816001015560408201518160020160006101000a81548173ffffffffffffffffffffffffffffffffffffffff021916908373ffffffffffffffffffffffffffffffffffffffff16021790555060608201518160020160146101000a81548160ff0219169083151502179055506080820151816003015550506001600080549050610e069190612173565b7f12f74df6387ef2d51265f7b8c12c28c83ba3a6a78ad217f3846ec9c2b1fad92f838333604051610e39939291906121a7565b60405180910390a25050565b60606000805b600080549050811015610eab5760008181548110610e6c57610e6b6117c2565b5b906000526020600020906004020160020160149054906101000a900460ff16610e9e578180610e9a906121e5565b9250505b8080600101915050610e4b565b5060008167ffffffffffffffff811115610ec857610ec76113fe565b5b604051908082528060200260200182016040528015610f0157816020015b610eee611114565b815260200190600190039081610ee65790505b5090506000805b6000805490508110156110ca5760008181548110610f2957610f286117c2565b5b906000526020600020906004020160020160149054906101000a900460ff166110bd5760008181548110610f6057610f5f6117c2565b5b90600052602060002090600402016040518060a0016040529081600082018054610f89906118f8565b80601f0160208091040260200160405190810160405280929190818152602001828054610fb5906118f8565b80156110025780601f10610fd757610100808354040283529160200191611002565b820191906000526020600020905b815481529060010190602001808311610fe557829003601f168201915b50505050508152602001600182015481526020016002820160009054906101000a900473ffffffffffffffffffffffffffffffffffffffff1673ffffffffffffffffffffffffffffffffffffffff1673ffffffffffffffffffffffffffffffffffffffff1681526020016002820160149054906101000a900460ff161515151581526020016003820154815250508383815181106110a3576110a26117c2565b5b602002602001018190525081806110b9906121e5565b9250505b8080600101915050610f08565b5081935050505090565b5080546110e0906118f8565b6000825580601f106110f25750611111565b601f016020900490600052602060002090810190611110919061115b565b5b50565b6040518060a001604052806060815260200160008152602001600073ffffffffffffffffffffffffffffffffffffffff168152602001600015158152602001600081525090565b5b8082111561117457600081600090555060010161115c565b5090565b6000604051905090565b600080fd5b600080fd5b6000819050919050565b61119f8161118c565b81146111aa57600080fd5b50565b6000813590506111bc81611196565b92915050565b6000602082840312156111d8576111d7611182565b5b60006111e6848285016111ad565b91505092915050565b600073ffffffffffffffffffffffffffffffffffffffff82169050919050565b600061121a826111ef565b9050919050565b61122a8161120f565b82525050565b60006020820190506112456000830184611221565b92915050565b6112548161118c565b82525050565b600060208201905061126f600083018461124b565b92915050565b6000819050919050565b600061129a611295611290846111ef565b611275565b6111ef565b9050919050565b60006112ac8261127f565b9050919050565b60006112be826112a1565b9050919050565b6112ce816112b3565b82525050565b60006020820190506112e960008301846112c5565b92915050565b600081519050919050565b600082825260208201905092915050565b60005b8381101561132957808201518184015260208101905061130e565b60008484015250505050565b6000601f19601f8301169050919050565b6000611351826112ef565b61135b81856112fa565b935061136b81856020860161130b565b61137481611335565b840191505092915050565b60008115159050919050565b6113948161137f565b82525050565b600060a08201905081810360008301526113b48188611346565b90506113c3602083018761124b565b6113d06040830186611221565b6113dd606083018561138b565b6113ea608083018461124b565b9695505050505050565b600080fd5b600080fd5b7f4e487b7100000000000000000000000000000000000000000000000000000000600052604160045260246000fd5b61143682611335565b810181811067ffffffffffffffff82111715611455576114546113fe565b5b80604052505050565b6000611468611178565b9050611474828261142d565b919050565b600067ffffffffffffffff821115611494576114936113fe565b5b61149d82611335565b9050602081019050919050565b82818337600083830152505050565b60006114cc6114c784611479565b61145e565b9050828152602081018484840111156114e8576114e76113f9565b5b6114f38482856114aa565b509392505050565b600082601f8301126115105761150f6113f4565b5b81356115208482602086016114b9565b91505092915050565b600080604083850312156115405761153f611182565b5b600083013567ffffffffffffffff81111561155e5761155d611187565b5b61156a858286016114fb565b925050602061157b858286016111ad565b9150509250929050565b600081519050919050565b600082825260208201905092915050565b6000819050602082019050919050565b600082825260208201905092915050565b60006115cd826112ef565b6115d781856115b1565b93506115e781856020860161130b565b6115f081611335565b840191505092915050565b6116048161118c565b82525050565b6116138161120f565b82525050565b6116228161137f565b82525050565b600060a083016000830151848203600086015261164582826115c2565b915050602083015161165a60208601826115fb565b50604083015161166d604086018261160a565b5060608301516116806060860182611619565b50608083015161169360808601826115fb565b508091505092915050565b60006116aa8383611628565b905092915050565b6000602082019050919050565b60006116ca82611585565b6116d48185611590565b9350836020820285016116e6856115a1565b8060005b858110156117225784840389528151611703858261169e565b945061170e836116b2565b925060208a019950506001810190506116ea565b50829750879550505050505092915050565b6000602082019050818103600083015261174e81846116bf565b905092915050565b7f496e76616c69642070726f647563742049440000000000000000000000000000600082015250565b600061178c6012836112fa565b915061179782611756565b602082019050919050565b600060208201905081810360008301526117bb8161177f565b9050919050565b7f4e487b7100000000000000000000000000000000000000000000000000000000600052603260045260246000fd5b7f4e6f7420617574686f72697a6564000000000000000000000000000000000000600082015250565b6000611827600e836112fa565b9150611832826117f1565b602082019050919050565b600060208201905081810360008301526118568161181a565b9050919050565b7f43616e6e6f742072656d6f766520736f6c642070726f64756374000000000000600082015250565b6000611893601a836112fa565b915061189e8261185d565b602082019050919050565b600060208201905081810360008301526118c281611886565b9050919050565b7f4e487b7100000000000000000000000000000000000000000000000000000000600052602260045260246000fd5b6000600282049050600182168061191057607f821691505b602082108103611923576119226118c9565b5b50919050565b6119328161137f565b811461193d57600080fd5b50565b60008151905061194f81611929565b92915050565b60006020828403121561196b5761196a611182565b5b600061197984828501611940565b91505092915050565b7f556e766572696669656420627579657200000000000000000000000000000000600082015250565b60006119b86010836112fa565b91506119c382611982565b602082019050919050565b600060208201905081810360008301526119e7816119ab565b9050919050565b7f4e487b7100000000000000000000000000000000000000000000000000000000600052602160045260246000fd5b60038110611a2a57600080fd5b50565b600081519050611a3c81611a1d565b92915050565b600060208284031215611a5857611a57611182565b5b6000611a6684828501611a2d565b91505092915050565b7f4e6f742061206275796572000000000000000000000000000000000000000000600082015250565b6000611aa5600b836112fa565b9150611ab082611a6f565b602082019050919050565b60006020820190508181036000830152611ad481611a98565b9050919050565b7f50726f6475637420616c726561647920736f6c64000000000000000000000000600082015250565b6000611b116014836112fa565b9150611b1c82611adb565b602082019050919050565b60006020820190508181036000830152611b4081611b04565b9050919050565b7f496e636f7272656374207061796d656e7420616d6f756e740000000000000000600082015250565b6000611b7d6018836112fa565b9150611b8882611b47565b602082019050919050565b60006020820190508181036000830152611bac81611b70565b9050919050565b7f53656c6c6572732063616e6e6f7420627579207468656972206f776e2070726f60008201527f6475637473000000000000000000000000000000000000000000000000000000602082015250565b6000611c0f6025836112fa565b9150611c1a82611bb3565b604082019050919050565b60006020820190508181036000830152611c3e81611c02565b9050919050565b600081905092915050565b50565b6000611c60600083611c45565b9150611c6b82611c50565b600082019050919050565b6000611c8182611c53565b9150819050919050565b7f5061796d656e74206661696c6564000000000000000000000000000000000000600082015250565b6000611cc1600e836112fa565b9150611ccc82611c8b565b602082019050919050565b60006020820190508181036000830152611cf081611cb4565b9050919050565b6000604082019050611d0c6000830185611221565b611d19602083018461124b565b9392505050565b7f556e76657269666965642073656c6c6572000000000000000000000000000000600082015250565b6000611d566011836112fa565b9150611d6182611d20565b602082019050919050565b60006020820190508181036000830152611d8581611d49565b9050919050565b7f4e6f7420612073656c6c65720000000000000000000000000000000000000000600082015250565b6000611dc2600c836112fa565b9150611dcd82611d8c565b602082019050919050565b60006020820190508181036000830152611df181611db5565b9050919050565b7f50726f64756374206e616d652072657175697265640000000000000000000000600082015250565b6000611e2e6015836112fa565b9150611e3982611df8565b602082019050919050565b60006020820190508181036000830152611e5d81611e21565b9050919050565b7f5072696365206d757374206265203e2030000000000000000000000000000000600082015250565b6000611e9a6011836112fa565b9150611ea582611e64565b602082019050919050565b60006020820190508181036000830152611ec981611e8d565b9050919050565b60008190508160005260206000209050919050565b60006020601f8301049050919050565b600082821b905092915050565b600060088302611f327fffffffffffffffffffffffffffffffffffffffffffffffffffffffffffffffff82611ef5565b611f3c8683611ef5565b95508019841693508086168417925050509392505050565b6000611f6f611f6a611f658461118c565b611275565b61118c565b9050919050565b6000819050919050565b611f8983611f54565b611f9d611f9582611f76565b848454611f02565b825550505050565b600090565b611fb2611fa5565b611fbd818484611f80565b505050565b5b81811015611fe157611fd6600082611faa565b600181019050611fc3565b5050565b601f82111561202657611ff781611ed0565b61200084611ee5565b8101602085101561200f578190505b61202361201b85611ee5565b830182611fc2565b50505b505050565b600082821c905092915050565b60006120496000198460080261202b565b1980831691505092915050565b60006120628383612038565b9150826002028217905092915050565b61207b826112ef565b67ffffffffffffffff811115612094576120936113fe565b5b61209e82546118f8565b6120a9828285611fe5565b600060209050601f8311600181146120dc57600084156120ca578287015190505b6120d48582612056565b86555061213c565b601f1984166120ea86611ed0565b60005b82811015612112578489015182556001820191506020850194506020810190506120ed565b8683101561212f578489015161212b601f891682612038565b8355505b6001600288020188555050505b505050505050565b7f4e487b7100000000000000000000000000000000000000000000000000000000600052601160045260246000fd5b600061217e8261118c565b91506121898361118c565b92508282039050818111156121a1576121a0612144565b5b92915050565b600060608201905081810360008301526121c18186611346565b90506121d0602083018561124b565b6121dd6040830184611221565b949350505050565b60006121f08261118c565b91507fffffffffffffffffffffffffffffffffffffffffffffffffffffffffffffffff820361222257612221612144565b5b60018201905091905056fea2646970667358221220ff6002ea2129a64800eeae1cbbbf9ecb9ac5f6111b6f2d9d533d3ef28ebf392764736f6c634300081c0033",
  "linkReferences": {},
  "deployedLinkReferences": {}
}