{
  "_format": "hh-sol-artifact-1",
  "contractName": "Marketplace",
  "sourceName": "contracts/Marketplace.sol",
  "abi": [
    {
      "inputs": [
        {
          "internalType": "address",
          "name": "_identityContract",
          "type": "address"
        }
      ],
      "stateMutability": "nonpayable",
      "type": "constructor"
    },
    {
      "anonymous": false,
      "inputs": [
        {
          "indexed": true,
          "internalType": "uint256",
          "name": "productId",
          "type": "uint256"
        },
        {
          "indexed": false,
          "internalType": "string",
          "name": "name",
          "type": "string"
        },
        {
          "indexed": false,
          "internalType": "uint256",
          "name": "price",
          "type": "uint256"
        },
        {
          "indexed": false,
          "internalType": "address",
          "name": "seller",
          "type": "address"
        }
      ],
      "name": "ProductListed",
      "type": "event"
    },
    {
      "anonymous": false,
      "inputs": [
        {
          "indexed": true,
          "internalType": "uint256",
          "name": "productId",
          "type": "uint256"
        },
        {
          "indexed": false,
          "internalType": "address",
          "name": "buyer",
          "type": "address"
        },
        {
          "indexed": false,
          "internalType": "uint256",
          "name": "price",
          "type": "uint256"
        }
      ],
      "name": "ProductPurchased",
      "type": "event"
    },
    {
      "anonymous": false,
      "inputs": [
        {
          "indexed": true,
          "internalType": "uint256",
          "name": "productId",
          "type": "uint256"
        }
      ],
      "name": "ProductRemoved",
      "type": "event"
    },
    {
      "inputs": [
        {
          "internalType": "uint256",
          "name": "_productId",
          "type": "uint256"
        }
      ],
      "name": "buyProduct",
      "outputs": [],
      "stateMutability": "payable",
      "type": "function"
    },
    {
      "inputs": [],
      "name": "getActiveProducts",
      "outputs": [
        {
          "components": [
            {
              "internalType": "string",
              "name": "name",
              "type": "string"
            },
            {
              "internalType": "uint256",
              "name": "price",
              "type": "uint256"
            },
            {
              "internalType": "address",
              "name": "seller",
              "type": "address"
            },
            {
              "internalType": "bool",
              "name": "sold",
              "type": "bool"
            },
            {
              "internalType": "uint256",
              "name": "listingTimestamp",
              "type": "uint256"
            }
          ],
          "internalType": "struct Marketplace.Product[]",
          "name": "",
          "type": "tuple[]"
        }
      ],
      "stateMutability": "view",
      "type": "function"
    },
    {
      "inputs": [],
      "name": "getProductCount",
      "outputs": [
        {
          "internalType": "uint256",
          "name": "",
          "type": "uint256"
        }
      ],
      "stateMutability": "view",
      "type": "function"
    },
    {
      "inputs": [],
      "name": "identityContract",
      "outputs": [
        {
          "internalType": "contract IdentityVerification",
          "name": "",
          "type": "address"
        }
      ],
      "stateMutability": "view",
      "type": "function"
    },
    {
      "inputs": [
        {
          "internalType": "string",
          "name": "_name",
          "type": "string"
        },
        {
          "internalType": "uint256",
          "name": "_price",
          "type": "uint256"
        }
      ],
      "name": "listProduct",
      "outputs": [],
      "stateMutability": "nonpayable",
      "type": "function"
    },
    {
      "inputs": [
        {
          "internalType": "uint256",
          "name": "",
          "type": "uint256"
        }
      ],
      "name": "productBuyers",
      "outputs": [
        {
          "internalType": "address",
          "name": "",
          "type": "address"
        }
      ],
      "stateMutability": "view",
      "type": "function"
    },
    {
      "inputs": [
        {
          "internalType": "uint256",
          "name": "",
          "type": "uint256"
        }
      ],
      "name": "products",
      "outputs": [
        {
          "internalType": "string",
          "name": "name",
          "type": "string"
        },
        {
          "internalType": "uint256",
          "name": "price",
          "type": "uint256"
        },
        {
          "internalType": "address",
          "name": "seller",
          "type": "address"
        },
        {
          "internalType": "bool",
          "name": "sold",
          "type": "bool"
        },
        {
          "internalType": "uint256",
          "name": "listingTimestamp",
          "type": "uint256"
        }
      ],
      "stateMutability": "view",
      "type": "function"
    },
    {
      "inputs": [
        {
          "internalType": "uint256",
          "name": "_productId",
          "type": "uint256"
        }
      ],
      "name": "removeProduct",
      "outputs": [],
      "stateMutability": "nonpayable",
      "type": "function"
    },
    {
      "inputs": [
        {
          "internalType": "address",
          "name": "",
          "type": "address"
        }
      ],
      "name": "sellerBalances",
      "outputs": [
        {
          "internalType": "uint256",
          "name": "",
          "type": "uint256"
        }
      ],
      "stateMutability": "view",
      "type": "function"
    }
  ],
  "bytecode": "0x60a060405234801561001057600080fd5b5060405161265c38038061265c8339818101604052810190610032919061013e565b600073ffffffffffffffffffffffffffffffffffffffff168173ffffffffffffffffffffffffffffffffffffffff16036100a1576040517f08c379a0000000000000000000000000000000000000000000000000000000008152600401610098906101c8565b60405180910390fd5b8073ffffffffffffffffffffffffffffffffffffffff1660808173ffffffffffffffffffffffffffffffffffffffff1681525050506101e8565b600080fd5b600073ffffffffffffffffffffffffffffffffffffffff82169050919050565b600061010b826100e0565b9050919050565b61011b81610100565b811461012657600080fd5b50565b60008151905061013881610112565b92915050565b600060208284031215610154576101536100db565b5b600061016284828501610129565b91505092915050565b600082825260208201905092915050565b7f496e76616c6964206964656e7469747920636f6e747261637400000000000000600082015250565b60006101b260198361016b565b91506101bd8261017c565b602082019050919050565b600060208201905081810360008301526101e1816101a5565b9050919050565b60805161243d61021f600039600081816105ac015281816106cb015281816107b801528181610b670152610c53015261243d6000f3fe6080604052600436106100865760003560e01c806367031bae1161005957806367031bae146101595780637acc0b20146101845780638642269e146101c557806389a1b523146101e1578063ca0f46c01461020a57610086565b80630a271a741461008b5780634a348da9146100c85780635ee95cae146100f3578063607eb4e41461011c575b600080fd5b34801561009757600080fd5b506100b260048036038101906100ad9190611294565b610235565b6040516100bf9190611302565b60405180910390f35b3480156100d457600080fd5b506100dd610268565b6040516100ea919061132c565b60405180910390f35b3480156100ff57600080fd5b5061011a60048036038101906101159190611294565b610274565b005b34801561012857600080fd5b50610143600480360381019061013e9190611373565b610592565b604051610150919061132c565b60405180910390f35b34801561016557600080fd5b5061016e6105aa565b60405161017b91906113ff565b60405180910390f35b34801561019057600080fd5b506101ab60048036038101906101a69190611294565b6105ce565b6040516101bc9594939291906114c5565b60405180910390f35b6101df60048036038101906101da9190611294565b6106c9565b005b3480156101ed57600080fd5b5061020860048036038101906102039190611654565b610b65565b005b34801561021657600080fd5b5061021f610f13565b60405161022c919061185f565b60405180910390f35b60016020528060005260406000206000915054906101000a900473ffffffffffffffffffffffffffffffffffffffff1681565b60008080549050905090565b8060008054905081106102bc576040517f08c379a00000000000000000000000000000000000000000000000000000000081526004016102b3906118cd565b60405180910390fd5b60008083815481106102d1576102d06118ed565b5b906000526020600020906004020190508060020160009054906101000a900473ffffffffffffffffffffffffffffffffffffffff1673ffffffffffffffffffffffffffffffffffffffff163373ffffffffffffffffffffffffffffffffffffffff1614610373576040517f08c379a000000000000000000000000000000000000000000000000000000000815260040161036a90611968565b60405180910390fd5b8060020160149054906101000a900460ff16156103c5576040517f08c379a00000000000000000000000000000000000000000000000000000000081526004016103bc906119d4565b60405180910390fd5b600060016000805490506103d99190611a23565b815481106103ea576103e96118ed565b5b90600052602060002090600402016000848154811061040c5761040b6118ed565b5b90600052602060002090600402016000820181600001908161042e9190611c6f565b50600182015481600101556002820160009054906101000a900473ffffffffffffffffffffffffffffffffffffffff168160020160006101000a81548173ffffffffffffffffffffffffffffffffffffffff021916908373ffffffffffffffffffffffffffffffffffffffff1602179055506002820160149054906101000a900460ff168160020160146101000a81548160ff0219169083151502179055506003820154816003015590505060008054806104ec576104eb611d57565b5b60019003818190600052602060002090600402016000808201600061051191906111a6565b60018201600090556002820160006101000a81549073ffffffffffffffffffffffffffffffffffffffff02191690556002820160146101000a81549060ff0219169055600382016000905550509055827f07015631cff457b5b13492c2045e70c6305a0a4aa773e432e79abbe2cf52c1eb60405160405180910390a2505050565b60026020528060005260406000206000915090505481565b7f000000000000000000000000000000000000000000000000000000000000000081565b600081815481106105de57600080fd5b906000526020600020906004020160009150905080600001805461060190611a86565b80601f016020809104026020016040519081016040528092919081815260200182805461062d90611a86565b801561067a5780601f1061064f5761010080835404028352916020019161067a565b820191906000526020600020905b81548152906001019060200180831161065d57829003601f168201915b5050505050908060010154908060020160009054906101000a900473ffffffffffffffffffffffffffffffffffffffff16908060020160149054906101000a900460ff16908060030154905085565b7f000000000000000000000000000000000000000000000000000000000000000073ffffffffffffffffffffffffffffffffffffffff1663ace417e0336040518263ffffffff1660e01b81526004016107229190611302565b602060405180830381865afa15801561073f573d6000803e3d6000fd5b505050506040513d601f19601f820116820180604052508101906107639190611db2565b6107a2576040517f08c379a000000000000000000000000000000000000000000000000000000000815260040161079990611e2b565b60405180910390fd5b600160028111156107b6576107b5611e4b565b5b7f000000000000000000000000000000000000000000000000000000000000000073ffffffffffffffffffffffffffffffffffffffff166327820851336040518263ffffffff1660e01b815260040161080f9190611302565b602060405180830381865afa15801561082c573d6000803e3d6000fd5b505050506040513d601f19601f820116820180604052508101906108509190611e9f565b600281111561086257610861611e4b565b5b146108a2576040517f08c379a000000000000000000000000000000000000000000000000000000000815260040161089990611f18565b60405180910390fd5b8060008054905081106108ea576040517f08c379a00000000000000000000000000000000000000000000000000000000081526004016108e1906118cd565b60405180910390fd5b60008083815481106108ff576108fe6118ed565b5b906000526020600020906004020190508060020160149054906101000a900460ff1615610961576040517f08c379a000000000000000000000000000000000000000000000000000000000815260040161095890611f84565b60405180910390fd5b806001015434146109a7576040517f08c379a000000000000000000000000000000000000000000000000000000000815260040161099e90611ff0565b60405180910390fd5b8060020160009054906101000a900473ffffffffffffffffffffffffffffffffffffffff1673ffffffffffffffffffffffffffffffffffffffff163373ffffffffffffffffffffffffffffffffffffffff1603610a39576040517f08c379a0000000000000000000000000000000000000000000000000000000008152600401610a3090612082565b60405180910390fd5b60018160020160146101000a81548160ff021916908315150217905550336001600085815260200190815260200160002060006101000a81548173ffffffffffffffffffffffffffffffffffffffff021916908373ffffffffffffffffffffffffffffffffffffffff16021790555034600260008360020160009054906101000a900473ffffffffffffffffffffffffffffffffffffffff1673ffffffffffffffffffffffffffffffffffffffff1673ffffffffffffffffffffffffffffffffffffffff1681526020019081526020016000206000828254610b1b91906120a2565b92505081905550827fa530f889d7f1bd9a73028e48944ca013ab2c6624a31e3fa26f923f4bb719abd5338360010154604051610b589291906120d6565b60405180910390a2505050565b7f000000000000000000000000000000000000000000000000000000000000000073ffffffffffffffffffffffffffffffffffffffff1663ace417e0336040518263ffffffff1660e01b8152600401610bbe9190611302565b602060405180830381865afa158015610bdb573d6000803e3d6000fd5b505050506040513d601f19601f82011682018060405250810190610bff9190611db2565b610c3e576040517f08c379a0000000000000000000000000000000000000000000000000000000008152600401610c359061214b565b60405180910390fd5b600280811115610c5157610c50611e4b565b5b7f000000000000000000000000000000000000000000000000000000000000000073ffffffffffffffffffffffffffffffffffffffff166327820851336040518263ffffffff1660e01b8152600401610caa9190611302565b602060405180830381865afa158015610cc7573d6000803e3d6000fd5b505050506040513d601f19601f82011682018060405250810190610ceb9190611e9f565b6002811115610cfd57610cfc611e4b565b5b14610d3d576040517f08c379a0000000000000000000000000000000000000000000000000000000008152600401610d34906121b7565b60405180910390fd5b6000825111610d81576040517f08c379a0000000000000000000000000000000000000000000000000000000008152600401610d7890612223565b60405180910390fd5b60008111610dc4576040517f08c379a0000000000000000000000000000000000000000000000000000000008152600401610dbb9061228f565b60405180910390fd5b60006040518060a001604052808481526020018381526020013373ffffffffffffffffffffffffffffffffffffffff1681526020016000151581526020014281525090806001815401808255809150506001900390600052602060002090600402016000909190919091506000820151816000019081610e4491906122af565b506020820151816001015560408201518160020160006101000a81548173ffffffffffffffffffffffffffffffffffffffff021916908373ffffffffffffffffffffffffffffffffffffffff16021790555060608201518160020160146101000a81548160ff0219169083151502179055506080820151816003015550506001600080549050610ed49190611a23565b7f12f74df6387ef2d51265f7b8c12c28c83ba3a6a78ad217f3846ec9c2b1fad92f838333604051610f0793929190612381565b60405180910390a25050565b6060600080600090505b600080549050811015610f7d5760008181548110610f3e57610f3d6118ed565b5b906000526020600020906004020160020160149054906101000a900460ff16610f70578180610f6c906123bf565b9250505b8080600101915050610f1d565b5060008167ffffffffffffffff811115610f9a57610f99611529565b5b604051908082528060200260200182016040528015610fd357816020015b610fc06111e6565b815260200190600190039081610fb85790505b5090506000805b60008054905081101561119c5760008181548110610ffb57610ffa6118ed565b5b906000526020600020906004020160020160149054906101000a900460ff1661118f5760008181548110611032576110316118ed565b5b90600052602060002090600402016040518060a001604052908160008201805461105b90611a86565b80601f016020809104026020016040519081016040528092919081815260200182805461108790611a86565b80156110d45780601f106110a9576101008083540402835291602001916110d4565b820191906000526020600020905b8154815290600101906020018083116110b757829003601f168201915b50505050508152602001600182015481526020016002820160009054906101000a900473ffffffffffffffffffffffffffffffffffffffff1673ffffffffffffffffffffffffffffffffffffffff1673ffffffffffffffffffffffffffffffffffffffff1681526020016002820160149054906101000a900460ff16151515158152602001600382015481525050838381518110611175576111746118ed565b5b6020026020010181905250818061118b906123bf565b9250505b8080600101915050610fda565b5081935050505090565b5080546111b290611a86565b6000825580601f106111c457506111e3565b601f0160209004906000526020600020908101906111e2919061122d565b5b50565b6040518060a001604052806060815260200160008152602001600073ffffffffffffffffffffffffffffffffffffffff168152602001600015158152602001600081525090565b5b8082111561124657600081600090555060010161122e565b5090565b6000604051905090565b600080fd5b600080fd5b6000819050919050565b6112718161125e565b811461127c57600080fd5b50565b60008135905061128e81611268565b92915050565b6000602082840312156112aa576112a9611254565b5b60006112b88482850161127f565b91505092915050565b600073ffffffffffffffffffffffffffffffffffffffff82169050919050565b60006112ec826112c1565b9050919050565b6112fc816112e1565b82525050565b600060208201905061131760008301846112f3565b92915050565b6113268161125e565b82525050565b6000602082019050611341600083018461131d565b92915050565b611350816112e1565b811461135b57600080fd5b50565b60008135905061136d81611347565b92915050565b60006020828403121561138957611388611254565b5b60006113978482850161135e565b91505092915050565b6000819050919050565b60006113c56113c06113bb846112c1565b6113a0565b6112c1565b9050919050565b60006113d7826113aa565b9050919050565b60006113e9826113cc565b9050919050565b6113f9816113de565b82525050565b600060208201905061141460008301846113f0565b92915050565b600081519050919050565b600082825260208201905092915050565b60005b83811015611454578082015181840152602081019050611439565b60008484015250505050565b6000601f19601f8301169050919050565b600061147c8261141a565b6114868185611425565b9350611496818560208601611436565b61149f81611460565b840191505092915050565b60008115159050919050565b6114bf816114aa565b82525050565b600060a08201905081810360008301526114df8188611471565b90506114ee602083018761131d565b6114fb60408301866112f3565b61150860608301856114b6565b611515608083018461131d565b9695505050505050565b600080fd5b600080fd5b7f4e487b7100000000000000000000000000000000000000000000000000000000600052604160045260246000fd5b61156182611460565b810181811067ffffffffffffffff821117156115805761157f611529565b5b80604052505050565b600061159361124a565b905061159f8282611558565b919050565b600067ffffffffffffffff8211156115bf576115be611529565b5b6115c882611460565b9050602081019050919050565b82818337600083830152505050565b60006115f76115f2846115a4565b611589565b90508281526020810184848401111561161357611612611524565b5b61161e8482856115d5565b509392505050565b600082601f83011261163b5761163a61151f565b5b813561164b8482602086016115e4565b91505092915050565b6000806040838503121561166b5761166a611254565b5b600083013567ffffffffffffffff81111561168957611688611259565b5b61169585828601611626565b92505060206116a68582860161127f565b9150509250929050565b600081519050919050565b600082825260208201905092915050565b6000819050602082019050919050565b600082825260208201905092915050565b60006116f88261141a565b61170281856116dc565b9350611712818560208601611436565b61171b81611460565b840191505092915050565b61172f8161125e565b82525050565b61173e816112e1565b82525050565b61174d816114aa565b82525050565b600060a083016000830151848203600086015261177082826116ed565b91505060208301516117856020860182611726565b5060408301516117986040860182611735565b5060608301516117ab6060860182611744565b5060808301516117be6080860182611726565b508091505092915050565b60006117d58383611753565b905092915050565b6000602082019050919050565b60006117f5826116b0565b6117ff81856116bb565b935083602082028501611811856116cc565b8060005b8581101561184d578484038952815161182e85826117c9565b9450611839836117dd565b925060208a01995050600181019050611815565b50829750879550505050505092915050565b6000602082019050818103600083015261187981846117ea565b905092915050565b7f496e76616c69642070726f647563742049440000000000000000000000000000600082015250565b60006118b7601283611425565b91506118c282611881565b602082019050919050565b600060208201905081810360008301526118e6816118aa565b9050919050565b7f4e487b7100000000000000000000000000000000000000000000000000000000600052603260045260246000fd5b7f4e6f7420617574686f72697a6564000000000000000000000000000000000000600082015250565b6000611952600e83611425565b915061195d8261191c565b602082019050919050565b6000602082019050818103600083015261198181611945565b9050919050565b7f43616e6e6f742072656d6f766520736f6c642070726f64756374000000000000600082015250565b60006119be601a83611425565b91506119c982611988565b602082019050919050565b600060208201905081810360008301526119ed816119b1565b9050919050565b7f4e487b7100000000000000000000000000000000000000000000000000000000600052601160045260246000fd5b6000611a2e8261125e565b9150611a398361125e565b9250828203905081811115611a5157611a506119f4565b5b92915050565b7f4e487b7100000000000000000000000000000000000000000000000000000000600052602260045260246000fd5b60006002820490506001821680611a9e57607f821691505b602082108103611ab157611ab0611a57565b5b50919050565b600081549050611ac681611a86565b9050919050565b60008190508160005260206000209050919050565b60006020601f8301049050919050565b600082821b905092915050565b600060088302611b2f7fffffffffffffffffffffffffffffffffffffffffffffffffffffffffffffffff82611af2565b611b398683611af2565b95508019841693508086168417925050509392505050565b6000611b6c611b67611b628461125e565b6113a0565b61125e565b9050919050565b6000819050919050565b611b8683611b51565b611b9a611b9282611b73565b848454611aff565b825550505050565b600090565b611baf611ba2565b611bba818484611b7d565b505050565b5b81811015611bde57611bd3600082611ba7565b600181019050611bc0565b5050565b601f821115611c2357611bf481611acd565b611bfd84611ae2565b81016020851015611c0c578190505b611c20611c1885611ae2565b830182611bbf565b50505b505050565b600082821c905092915050565b6000611c4660001984600802611c28565b1980831691505092915050565b6000611c5f8383611c35565b9150826002028217905092915050565b818103611c7d575050611d55565b611c8682611ab7565b67ffffffffffffffff811115611c9f57611c9e611529565b5b611ca98254611a86565b611cb4828285611be2565b6000601f831160018114611ce35760008415611cd1578287015490505b611cdb8582611c53565b865550611d4e565b601f198416611cf187611acd565b9650611cfc86611acd565b60005b82811015611d2457848901548255600182019150600185019450602081019050611cff565b86831015611d415784890154611d3d601f891682611c35565b8355505b6001600288020188555050505b5050505050505b565b7f4e487b7100000000000000000000000000000000000000000000000000000000600052603160045260246000fd5b611d8f816114aa565b8114611d9a57600080fd5b50565b600081519050611dac81611d86565b92915050565b600060208284031215611dc857611dc7611254565b5b6000611dd684828501611d9d565b91505092915050565b7f556e766572696669656420627579657200000000000000000000000000000000600082015250565b6000611e15601083611425565b9150611e2082611ddf565b602082019050919050565b60006020820190508181036000830152611e4481611e08565b9050919050565b7f4e487b7100000000000000000000000000000000000000000000000000000000600052602160045260246000fd5b60038110611e8757600080fd5b50565b600081519050611e9981611e7a565b92915050565b600060208284031215611eb557611eb4611254565b5b6000611ec384828501611e8a565b91505092915050565b7f4e6f742061206275796572000000000000000000000000000000000000000000600082015250565b6000611f02600b83611425565b9150611f0d82611ecc565b602082019050919050565b60006020820190508181036000830152611f3181611ef5565b9050919050565b7f50726f6475637420616c726561647920736f6c64000000000000000000000000600082015250565b6000611f6e601483611425565b9150611f7982611f38565b602082019050919050565b60006020820190508181036000830152611f9d81611f61565b9050919050565b7f496e636f7272656374207061796d656e7420616d6f756e740000000000000000600082015250565b6000611fda601883611425565b9150611fe582611fa4565b602082019050919050565b6000602082019050818103600083015261200981611fcd565b9050919050565b7f53656c6c6572732063616e6e6f7420627579207468656972206f776e2070726f60008201527f6475637473000000000000000000000000000000000000000000000000000000602082015250565b600061206c602583611425565b915061207782612010565b604082019050919050565b6000602082019050818103600083015261209b8161205f565b9050919050565b60006120ad8261125e565b91506120b88361125e565b92508282019050808211156120d0576120cf6119f4565b5b92915050565b60006040820190506120eb60008301856112f3565b6120f8602083018461131d565b9392505050565b7f556e76657269666965642073656c6c6572000000000000000000000000000000600082015250565b6000612135601183611425565b9150612140826120ff565b602082019050919050565b6000602082019050818103600083015261216481612128565b9050919050565b7f4e6f7420612073656c6c65720000000000000000000000000000000000000000600082015250565b60006121a1600c83611425565b91506121ac8261216b565b602082019050919050565b600060208201905081810360008301526121d081612194565b9050919050565b7f50726f64756374206e616d652072657175697265640000000000000000000000600082015250565b600061220d601583611425565b9150612218826121d7565b602082019050919050565b6000602082019050818103600083015261223c81612200565b9050919050565b7f5072696365206d757374206265203e2030000000000000000000000000000000600082015250565b6000612279601183611425565b915061228482612243565b602082019050919050565b600060208201905081810360008301526122a88161226c565b9050919050565b6122b88261141a565b67ffffffffffffffff8111156122d1576122d0611529565b5b6122db8254611a86565b6122e6828285611be2565b600060209050601f8311600181146123195760008415612307578287015190505b6123118582611c53565b865550612379565b601f19841661232786611acd565b60005b8281101561234f5784890151825560018201915060208501945060208101905061232a565b8683101561236c5784890151612368601f891682611c35565b8355505b6001600288020188555050505b505050505050565b6000606082019050818103600083015261239b8186611471565b90506123aa602083018561131d565b6123b760408301846112f3565b949350505050565b60006123ca8261125e565b91507fffffffffffffffffffffffffffffffffffffffffffffffffffffffffffffffff82036123fc576123fb6119f4565b5b60018201905091905056fea26469706673582212208d6e610e07d3bda19e00f3e01b05e3d9b6e6b8828d19b563aa6f4e7771bc714964736f6c634300081c0033",
  "linkReferences": {},
  "deployedLinkReferences": {}
}