{
  "_format": "hh-sol-artifact-1",
  "contractName": "Marketplace",
  "sourceName": "contracts/Marketplace.sol",
  "abi": [
    {
      "inputs": [
        {
          "internalType": "address",
          "name": "_identityContract",
          "type": "address"
        }
      ],
      "stateMutability": "nonpayable",
      "type": "constructor"
    },
    {
      "anonymous": false,
      "inputs": [
        {
          "indexed": true,
          "internalType": "uint256",
          "name": "productId",
          "type": "uint256"
        },
        {
          "indexed": false,
          "internalType": "string",
          "name": "name",
          "type": "string"
        },
        {
          "indexed": false,
          "internalType": "uint256",
          "name": "price",
          "type": "uint256"
        },
        {
          "indexed": false,
          "internalType": "address",
          "name": "seller",
          "type": "address"
        }
      ],
      "name": "ProductListed",
      "type": "event"
    },
    {
      "anonymous": false,
      "inputs": [
        {
          "indexed": true,
          "internalType": "uint256",
          "name": "productId",
          "type": "uint256"
        },
        {
          "indexed": false,
          "internalType": "address",
          "name": "buyer",
          "type": "address"
        }
      ],
      "name": "ProductPurchased",
      "type": "event"
    },
    {
      "inputs": [],
      "name": "admin",
      "outputs": [
        {
          "internalType": "address",
          "name": "",
          "type": "address"
        }
      ],
      "stateMutability": "view",
      "type": "function"
    },
    {
      "inputs": [
        {
          "internalType": "uint256",
          "name": "_productId",
          "type": "uint256"
        }
      ],
      "name": "buyProduct",
      "outputs": [],
      "stateMutability": "payable",
      "type": "function"
    },
    {
      "inputs": [],
      "name": "getAllProducts",
      "outputs": [
        {
          "components": [
            {
              "internalType": "string",
              "name": "name",
              "type": "string"
            },
            {
              "internalType": "uint256",
              "name": "price",
              "type": "uint256"
            },
            {
              "internalType": "address",
              "name": "seller",
              "type": "address"
            },
            {
              "internalType": "bool",
              "name": "sold",
              "type": "bool"
            }
          ],
          "internalType": "struct Marketplace.Product[]",
          "name": "",
          "type": "tuple[]"
        }
      ],
      "stateMutability": "view",
      "type": "function"
    },
    {
      "inputs": [
        {
          "internalType": "uint256",
          "name": "_productId",
          "type": "uint256"
        }
      ],
      "name": "getProduct",
      "outputs": [
        {
          "internalType": "string",
          "name": "",
          "type": "string"
        },
        {
          "internalType": "uint256",
          "name": "",
          "type": "uint256"
        },
        {
          "internalType": "address",
          "name": "",
          "type": "address"
        },
        {
          "internalType": "bool",
          "name": "",
          "type": "bool"
        }
      ],
      "stateMutability": "view",
      "type": "function"
    },
    {
      "inputs": [
        {
          "internalType": "string",
          "name": "_name",
          "type": "string"
        },
        {
          "internalType": "uint256",
          "name": "_price",
          "type": "uint256"
        }
      ],
      "name": "listProduct",
      "outputs": [],
      "stateMutability": "nonpayable",
      "type": "function"
    },
    {
      "inputs": [
        {
          "internalType": "uint256",
          "name": "",
          "type": "uint256"
        }
      ],
      "name": "products",
      "outputs": [
        {
          "internalType": "string",
          "name": "name",
          "type": "string"
        },
        {
          "internalType": "uint256",
          "name": "price",
          "type": "uint256"
        },
        {
          "internalType": "address",
          "name": "seller",
          "type": "address"
        },
        {
          "internalType": "bool",
          "name": "sold",
          "type": "bool"
        }
      ],
      "stateMutability": "view",
      "type": "function"
    }
  ],
  "bytecode": "0x608060405234801561001057600080fd5b50604051611aa2380380611aa28339818101604052810190610032919061011c565b806000806101000a81548173ffffffffffffffffffffffffffffffffffffffff021916908373ffffffffffffffffffffffffffffffffffffffff16021790555033600160006101000a81548173ffffffffffffffffffffffffffffffffffffffff021916908373ffffffffffffffffffffffffffffffffffffffff16021790555050610149565b600080fd5b600073ffffffffffffffffffffffffffffffffffffffff82169050919050565b60006100e9826100be565b9050919050565b6100f9816100de565b811461010457600080fd5b50565b600081519050610116816100f0565b92915050565b600060208284031215610132576101316100b9565b5b600061014084828501610107565b91505092915050565b61194a806101586000396000f3fe6080604052600436106100555760003560e01c806302ee3a521461005a5780637acc0b20146100855780638642269e146100c557806389a1b523146100e1578063b9db15b41461010a578063f851a4401461014a575b600080fd5b34801561006657600080fd5b5061006f610175565b60405161007c9190610e9a565b60405180910390f35b34801561009157600080fd5b506100ac60048036038101906100a79190610efc565b6102e1565b6040516100bc9493929190610fa0565b60405180910390f35b6100df60048036038101906100da9190610efc565b6103d6565b005b3480156100ed57600080fd5b5061010860048036038101906101039190611121565b61077d565b005b34801561011657600080fd5b50610131600480360381019061012c9190610efc565b610a9a565b6040516101419493929190610fa0565b60405180910390f35b34801561015657600080fd5b5061015f610c4a565b60405161016c919061117d565b60405180910390f35b60606002805480602002602001604051908101604052809291908181526020016000905b828210156102d857838290600052602060002090600302016040518060800160405290816000820180546101cc906111c7565b80601f01602080910402602001604051908101604052809291908181526020018280546101f8906111c7565b80156102455780601f1061021a57610100808354040283529160200191610245565b820191906000526020600020905b81548152906001019060200180831161022857829003601f168201915b50505050508152602001600182015481526020016002820160009054906101000a900473ffffffffffffffffffffffffffffffffffffffff1673ffffffffffffffffffffffffffffffffffffffff1673ffffffffffffffffffffffffffffffffffffffff1681526020016002820160149054906101000a900460ff16151515158152505081526020019060010190610199565b50505050905090565b600281815481106102f157600080fd5b9060005260206000209060030201600091509050806000018054610314906111c7565b80601f0160208091040260200160405190810160405280929190818152602001828054610340906111c7565b801561038d5780601f106103625761010080835404028352916020019161038d565b820191906000526020600020905b81548152906001019060200180831161037057829003601f168201915b5050505050908060010154908060020160009054906101000a900473ffffffffffffffffffffffffffffffffffffffff16908060020160149054906101000a900460ff16905084565b60008054906101000a900473ffffffffffffffffffffffffffffffffffffffff1673ffffffffffffffffffffffffffffffffffffffff1663ace417e0336040518263ffffffff1660e01b815260040161042f919061117d565b602060405180830381865afa15801561044c573d6000803e3d6000fd5b505050506040513d601f19601f820116820180604052508101906104709190611224565b6104af576040517f08c379a00000000000000000000000000000000000000000000000000000000081526004016104a69061129d565b60405180910390fd5b600160028111156104c3576104c26112bd565b5b60008054906101000a900473ffffffffffffffffffffffffffffffffffffffff1673ffffffffffffffffffffffffffffffffffffffff166327820851336040518263ffffffff1660e01b815260040161051c919061117d565b602060405180830381865afa158015610539573d6000803e3d6000fd5b505050506040513d601f19601f8201168201806040525081019061055d9190611311565b600281111561056f5761056e6112bd565b5b146105af576040517f08c379a00000000000000000000000000000000000000000000000000000000081526004016105a69061138a565b60405180910390fd5b60028054905081106105f6576040517f08c379a00000000000000000000000000000000000000000000000000000000081526004016105ed906113f6565b60405180910390fd5b60006002828154811061060c5761060b611416565b5b906000526020600020906003020190508060020160149054906101000a900460ff161561066e576040517f08c379a000000000000000000000000000000000000000000000000000000000815260040161066590611491565b60405180910390fd5b80600101543410156106b5576040517f08c379a00000000000000000000000000000000000000000000000000000000081526004016106ac906114fd565b60405180910390fd5b8060020160009054906101000a900473ffffffffffffffffffffffffffffffffffffffff1673ffffffffffffffffffffffffffffffffffffffff166108fc82600101549081150290604051600060405180830381858888f19350505050158015610723573d6000803e3d6000fd5b5060018160020160146101000a81548160ff021916908315150217905550817f9ad4ecfaf27ea0cbeebee0ed92fe15c8a84975f1e3d45ccfc526d7751dcf98ff33604051610771919061117d565b60405180910390a25050565b60008054906101000a900473ffffffffffffffffffffffffffffffffffffffff1673ffffffffffffffffffffffffffffffffffffffff1663ace417e0336040518263ffffffff1660e01b81526004016107d6919061117d565b602060405180830381865afa1580156107f3573d6000803e3d6000fd5b505050506040513d601f19601f820116820180604052508101906108179190611224565b610856576040517f08c379a000000000000000000000000000000000000000000000000000000000815260040161084d90611569565b60405180910390fd5b600280811115610869576108686112bd565b5b60008054906101000a900473ffffffffffffffffffffffffffffffffffffffff1673ffffffffffffffffffffffffffffffffffffffff166327820851336040518263ffffffff1660e01b81526004016108c2919061117d565b602060405180830381865afa1580156108df573d6000803e3d6000fd5b505050506040513d601f19601f820116820180604052508101906109039190611311565b6002811115610915576109146112bd565b5b14610955576040517f08c379a000000000000000000000000000000000000000000000000000000000815260040161094c906115d5565b60405180910390fd5b600260405180608001604052808481526020018381526020013373ffffffffffffffffffffffffffffffffffffffff16815260200160001515815250908060018154018082558091505060019003906000526020600020906003020160009091909190915060008201518160000190816109cf91906117a1565b506020820151816001015560408201518160020160006101000a81548173ffffffffffffffffffffffffffffffffffffffff021916908373ffffffffffffffffffffffffffffffffffffffff16021790555060608201518160020160146101000a81548160ff021916908315150217905550505060006001600280549050610a5791906118a2565b9050807f12f74df6387ef2d51265f7b8c12c28c83ba3a6a78ad217f3846ec9c2b1fad92f848433604051610a8d939291906118d6565b60405180910390a2505050565b606060008060006002805490508510610ae8576040517f08c379a0000000000000000000000000000000000000000000000000000000008152600401610adf906113f6565b60405180910390fd5b600060028681548110610afe57610afd611416565b5b9060005260206000209060030201604051806080016040529081600082018054610b27906111c7565b80601f0160208091040260200160405190810160405280929190818152602001828054610b53906111c7565b8015610ba05780601f10610b7557610100808354040283529160200191610ba0565b820191906000526020600020905b815481529060010190602001808311610b8357829003601f168201915b50505050508152602001600182015481526020016002820160009054906101000a900473ffffffffffffffffffffffffffffffffffffffff1673ffffffffffffffffffffffffffffffffffffffff1673ffffffffffffffffffffffffffffffffffffffff1681526020016002820160149054906101000a900460ff161515151581525050905080600001518160200151826040015183606001519450945094509450509193509193565b600160009054906101000a900473ffffffffffffffffffffffffffffffffffffffff1681565b600081519050919050565b600082825260208201905092915050565b6000819050602082019050919050565b600081519050919050565b600082825260208201905092915050565b60005b83811015610cd6578082015181840152602081019050610cbb565b60008484015250505050565b6000601f19601f8301169050919050565b6000610cfe82610c9c565b610d088185610ca7565b9350610d18818560208601610cb8565b610d2181610ce2565b840191505092915050565b6000819050919050565b610d3f81610d2c565b82525050565b600073ffffffffffffffffffffffffffffffffffffffff82169050919050565b6000610d7082610d45565b9050919050565b610d8081610d65565b82525050565b60008115159050919050565b610d9b81610d86565b82525050565b60006080830160008301518482036000860152610dbe8282610cf3565b9150506020830151610dd36020860182610d36565b506040830151610de66040860182610d77565b506060830151610df96060860182610d92565b508091505092915050565b6000610e108383610da1565b905092915050565b6000602082019050919050565b6000610e3082610c70565b610e3a8185610c7b565b935083602082028501610e4c85610c8c565b8060005b85811015610e885784840389528151610e698582610e04565b9450610e7483610e18565b925060208a01995050600181019050610e50565b50829750879550505050505092915050565b60006020820190508181036000830152610eb48184610e25565b905092915050565b6000604051905090565b600080fd5b600080fd5b610ed981610d2c565b8114610ee457600080fd5b50565b600081359050610ef681610ed0565b92915050565b600060208284031215610f1257610f11610ec6565b5b6000610f2084828501610ee7565b91505092915050565b600082825260208201905092915050565b6000610f4582610c9c565b610f4f8185610f29565b9350610f5f818560208601610cb8565b610f6881610ce2565b840191505092915050565b610f7c81610d2c565b82525050565b610f8b81610d65565b82525050565b610f9a81610d86565b82525050565b60006080820190508181036000830152610fba8187610f3a565b9050610fc96020830186610f73565b610fd66040830185610f82565b610fe36060830184610f91565b95945050505050565b600080fd5b600080fd5b7f4e487b7100000000000000000000000000000000000000000000000000000000600052604160045260246000fd5b61102e82610ce2565b810181811067ffffffffffffffff8211171561104d5761104c610ff6565b5b80604052505050565b6000611060610ebc565b905061106c8282611025565b919050565b600067ffffffffffffffff82111561108c5761108b610ff6565b5b61109582610ce2565b9050602081019050919050565b82818337600083830152505050565b60006110c46110bf84611071565b611056565b9050828152602081018484840111156110e0576110df610ff1565b5b6110eb8482856110a2565b509392505050565b600082601f83011261110857611107610fec565b5b81356111188482602086016110b1565b91505092915050565b6000806040838503121561113857611137610ec6565b5b600083013567ffffffffffffffff81111561115657611155610ecb565b5b611162858286016110f3565b925050602061117385828601610ee7565b9150509250929050565b60006020820190506111926000830184610f82565b92915050565b7f4e487b7100000000000000000000000000000000000000000000000000000000600052602260045260246000fd5b600060028204905060018216806111df57607f821691505b6020821081036111f2576111f1611198565b5b50919050565b61120181610d86565b811461120c57600080fd5b50565b60008151905061121e816111f8565b92915050565b60006020828403121561123a57611239610ec6565b5b60006112488482850161120f565b91505092915050565b7f4275796572206d75737420626520766572696669656400000000000000000000600082015250565b6000611287601683610f29565b915061129282611251565b602082019050919050565b600060208201905081810360008301526112b68161127a565b9050919050565b7f4e487b7100000000000000000000000000000000000000000000000000000000600052602160045260246000fd5b600381106112f957600080fd5b50565b60008151905061130b816112ec565b92915050565b60006020828403121561132757611326610ec6565b5b6000611335848285016112fc565b91505092915050565b7f4d75737420626520612062757965720000000000000000000000000000000000600082015250565b6000611374600f83610f29565b915061137f8261133e565b602082019050919050565b600060208201905081810360008301526113a381611367565b9050919050565b7f496e76616c69642070726f647563742049440000000000000000000000000000600082015250565b60006113e0601283610f29565b91506113eb826113aa565b602082019050919050565b6000602082019050818103600083015261140f816113d3565b9050919050565b7f4e487b7100000000000000000000000000000000000000000000000000000000600052603260045260246000fd5b7f50726f6475637420616c726561647920736f6c64000000000000000000000000600082015250565b600061147b601483610f29565b915061148682611445565b602082019050919050565b600060208201905081810360008301526114aa8161146e565b9050919050565b7f496e73756666696369656e742066756e64730000000000000000000000000000600082015250565b60006114e7601283610f29565b91506114f2826114b1565b602082019050919050565b60006020820190508181036000830152611516816114da565b9050919050565b7f53656c6c6572206d757374206265207665726966696564000000000000000000600082015250565b6000611553601783610f29565b915061155e8261151d565b602082019050919050565b6000602082019050818103600083015261158281611546565b9050919050565b7f4d75737420626520612073656c6c657200000000000000000000000000000000600082015250565b60006115bf601083610f29565b91506115ca82611589565b602082019050919050565b600060208201905081810360008301526115ee816115b2565b9050919050565b60008190508160005260206000209050919050565b60006020601f8301049050919050565b600082821b905092915050565b6000600883026116577fffffffffffffffffffffffffffffffffffffffffffffffffffffffffffffffff8261161a565b611661868361161a565b95508019841693508086168417925050509392505050565b6000819050919050565b600061169e61169961169484610d2c565b611679565b610d2c565b9050919050565b6000819050919050565b6116b883611683565b6116cc6116c4826116a5565b848454611627565b825550505050565b600090565b6116e16116d4565b6116ec8184846116af565b505050565b5b81811015611710576117056000826116d9565b6001810190506116f2565b5050565b601f82111561175557611726816115f5565b61172f8461160a565b8101602085101561173e578190505b61175261174a8561160a565b8301826116f1565b50505b505050565b600082821c905092915050565b60006117786000198460080261175a565b1980831691505092915050565b60006117918383611767565b9150826002028217905092915050565b6117aa82610c9c565b67ffffffffffffffff8111156117c3576117c2610ff6565b5b6117cd82546111c7565b6117d8828285611714565b600060209050601f83116001811461180b57600084156117f9578287015190505b6118038582611785565b86555061186b565b601f198416611819866115f5565b60005b828110156118415784890151825560018201915060208501945060208101905061181c565b8683101561185e578489015161185a601f891682611767565b8355505b6001600288020188555050505b505050505050565b7f4e487b7100000000000000000000000000000000000000000000000000000000600052601160045260246000fd5b60006118ad82610d2c565b91506118b883610d2c565b92508282039050818111156118d0576118cf611873565b5b92915050565b600060608201905081810360008301526118f08186610f3a565b90506118ff6020830185610f73565b61190c6040830184610f82565b94935050505056fea2646970667358221220d8f026f4ec125de5843888c9c3aa55289cf6cccc58180548ebbad4fc97a6878d64736f6c634300081c0033",
  "linkReferences": {},
  "deployedLinkReferences": {}
}