{
  "_format": "hh-sol-artifact-1",
  "contractName": "Marketplace",
  "sourceName": "contracts/Marketplace.sol",
  "abi": [
    {
      "inputs": [
        {
          "internalType": "address",
          "name": "_identityVerificationAddress",
          "type": "address"
        }
      ],
      "stateMutability": "nonpayable",
      "type": "constructor"
    },
    {
      "anonymous": false,
      "inputs": [
        {
          "indexed": false,
          "internalType": "uint256",
          "name": "productId",
          "type": "uint256"
        },
        {
          "indexed": false,
          "internalType": "string",
          "name": "name",
          "type": "string"
        },
        {
          "indexed": false,
          "internalType": "uint256",
          "name": "price",
          "type": "uint256"
        },
        {
          "indexed": false,
          "internalType": "address",
          "name": "seller",
          "type": "address"
        }
      ],
      "name": "ProductListed",
      "type": "event"
    },
    {
      "anonymous": false,
      "inputs": [
        {
          "indexed": false,
          "internalType": "uint256",
          "name": "productId",
          "type": "uint256"
        },
        {
          "indexed": false,
          "internalType": "address",
          "name": "buyer",
          "type": "address"
        }
      ],
      "name": "ProductPurchased",
      "type": "event"
    },
    {
      "inputs": [],
      "name": "identityVerification",
      "outputs": [
        {
          "internalType": "contract IdentityVerification",
          "name": "",
          "type": "address"
        }
      ],
      "stateMutability": "view",
      "type": "function"
    },
    {
      "inputs": [
        {
          "internalType": "string",
          "name": "_name",
          "type": "string"
        },
        {
          "internalType": "uint256",
          "name": "_price",
          "type": "uint256"
        }
      ],
      "name": "listProduct",
      "outputs": [],
      "stateMutability": "nonpayable",
      "type": "function"
    },
    {
      "inputs": [],
      "name": "productCount",
      "outputs": [
        {
          "internalType": "uint256",
          "name": "",
          "type": "uint256"
        }
      ],
      "stateMutability": "view",
      "type": "function"
    },
    {
      "inputs": [
        {
          "internalType": "uint256",
          "name": "",
          "type": "uint256"
        }
      ],
      "name": "products",
      "outputs": [
        {
          "internalType": "uint256",
          "name": "id",
          "type": "uint256"
        },
        {
          "internalType": "string",
          "name": "name",
          "type": "string"
        },
        {
          "internalType": "uint256",
          "name": "price",
          "type": "uint256"
        },
        {
          "internalType": "address payable",
          "name": "seller",
          "type": "address"
        },
        {
          "internalType": "bool",
          "name": "isSold",
          "type": "bool"
        }
      ],
      "stateMutability": "view",
      "type": "function"
    },
    {
      "inputs": [
        {
          "internalType": "uint256",
          "name": "_productId",
          "type": "uint256"
        }
      ],
      "name": "purchaseProduct",
      "outputs": [],
      "stateMutability": "payable",
      "type": "function"
    }
  ],
  "bytecode": "0x608060405234801561001057600080fd5b5060405161141c38038061141c833981810160405281019061003291906100db565b806000806101000a81548173ffffffffffffffffffffffffffffffffffffffff021916908373ffffffffffffffffffffffffffffffffffffffff16021790555050610108565b600080fd5b600073ffffffffffffffffffffffffffffffffffffffff82169050919050565b60006100a88261007d565b9050919050565b6100b88161009d565b81146100c357600080fd5b50565b6000815190506100d5816100af565b92915050565b6000602082840312156100f1576100f0610078565b5b60006100ff848285016100c6565b91505092915050565b611305806101176000396000f3fe60806040526004361061004a5760003560e01c806338e76a031461004f5780637acc0b201461006b57806389a1b523146100ac578063aa38a841146100d5578063e0f6ef8714610100575b600080fd5b61006960048036038101906100649190610824565b61012b565b005b34801561007757600080fd5b50610092600480360381019061008d9190610824565b610463565b6040516100a395949392919061094c565b60405180910390f35b3480156100b857600080fd5b506100d360048036038101906100ce9190610adb565b61054e565b005b3480156100e157600080fd5b506100ea6107b0565b6040516100f79190610b96565b60405180910390f35b34801561010c57600080fd5b506101156107d4565b6040516101229190610bb1565b60405180910390f35b60008054906101000a900473ffffffffffffffffffffffffffffffffffffffff1673ffffffffffffffffffffffffffffffffffffffff1663ace417e0336040518263ffffffff1660e01b81526004016101849190610bed565b602060405180830381865afa1580156101a1573d6000803e3d6000fd5b505050506040513d601f19601f820116820180604052508101906101c59190610c34565b610204576040517f08c379a00000000000000000000000000000000000000000000000000000000081526004016101fb90610cd3565b60405180910390fd5b6000600160008381526020019081526020016000209050600081600001541180156102355750600254816000015411155b610274576040517f08c379a000000000000000000000000000000000000000000000000000000000815260040161026b90610d3f565b60405180910390fd5b8060030160149054906101000a900460ff16156102c6576040517f08c379a00000000000000000000000000000000000000000000000000000000081526004016102bd90610dab565b60405180910390fd5b8060020154341461030c576040517f08c379a000000000000000000000000000000000000000000000000000000000815260040161030390610e17565b60405180910390fd5b8060030160009054906101000a900473ffffffffffffffffffffffffffffffffffffffff1673ffffffffffffffffffffffffffffffffffffffff163373ffffffffffffffffffffffffffffffffffffffff160361039e576040517f08c379a000000000000000000000000000000000000000000000000000000000815260040161039590610e83565b60405180910390fd5b8060030160009054906101000a900473ffffffffffffffffffffffffffffffffffffffff1673ffffffffffffffffffffffffffffffffffffffff166108fc349081150290604051600060405180830381858888f19350505050158015610408573d6000803e3d6000fd5b5060018160030160146101000a81548160ff0219169083151502179055507f9ad4ecfaf27ea0cbeebee0ed92fe15c8a84975f1e3d45ccfc526d7751dcf98ff8233604051610457929190610ea3565b60405180910390a15050565b600160205280600052604060002060009150905080600001549080600101805461048c90610efb565b80601f01602080910402602001604051908101604052809291908181526020018280546104b890610efb565b80156105055780601f106104da57610100808354040283529160200191610505565b820191906000526020600020905b8154815290600101906020018083116104e857829003601f168201915b5050505050908060020154908060030160009054906101000a900473ffffffffffffffffffffffffffffffffffffffff16908060030160149054906101000a900460ff16905085565b60008054906101000a900473ffffffffffffffffffffffffffffffffffffffff1673ffffffffffffffffffffffffffffffffffffffff1663ace417e0336040518263ffffffff1660e01b81526004016105a79190610bed565b602060405180830381865afa1580156105c4573d6000803e3d6000fd5b505050506040513d601f19601f820116820180604052508101906105e89190610c34565b610627576040517f08c379a000000000000000000000000000000000000000000000000000000000815260040161061e90610cd3565b60405180910390fd5b6000811161066a576040517f08c379a000000000000000000000000000000000000000000000000000000000815260040161066190610f78565b60405180910390fd5b6002600081548092919061067d90610fc7565b91905055506040518060a0016040528060025481526020018381526020018281526020013373ffffffffffffffffffffffffffffffffffffffff168152602001600015158152506001600060025481526020019081526020016000206000820151816000015560208201518160010190816106f891906111b1565b506040820151816002015560608201518160030160006101000a81548173ffffffffffffffffffffffffffffffffffffffff021916908373ffffffffffffffffffffffffffffffffffffffff16021790555060808201518160030160146101000a81548160ff0219169083151502179055509050507f12f74df6387ef2d51265f7b8c12c28c83ba3a6a78ad217f3846ec9c2b1fad92f6002548383336040516107a49493929190611283565b60405180910390a15050565b60008054906101000a900473ffffffffffffffffffffffffffffffffffffffff1681565b60025481565b6000604051905090565b600080fd5b600080fd5b6000819050919050565b610801816107ee565b811461080c57600080fd5b50565b60008135905061081e816107f8565b92915050565b60006020828403121561083a576108396107e4565b5b60006108488482850161080f565b91505092915050565b61085a816107ee565b82525050565b600081519050919050565b600082825260208201905092915050565b60005b8381101561089a57808201518184015260208101905061087f565b60008484015250505050565b6000601f19601f8301169050919050565b60006108c282610860565b6108cc818561086b565b93506108dc81856020860161087c565b6108e5816108a6565b840191505092915050565b600073ffffffffffffffffffffffffffffffffffffffff82169050919050565b600061091b826108f0565b9050919050565b61092b81610910565b82525050565b60008115159050919050565b61094681610931565b82525050565b600060a0820190506109616000830188610851565b818103602083015261097381876108b7565b90506109826040830186610851565b61098f6060830185610922565b61099c608083018461093d565b9695505050505050565b600080fd5b600080fd5b7f4e487b7100000000000000000000000000000000000000000000000000000000600052604160045260246000fd5b6109e8826108a6565b810181811067ffffffffffffffff82111715610a0757610a066109b0565b5b80604052505050565b6000610a1a6107da565b9050610a2682826109df565b919050565b600067ffffffffffffffff821115610a4657610a456109b0565b5b610a4f826108a6565b9050602081019050919050565b82818337600083830152505050565b6000610a7e610a7984610a2b565b610a10565b905082815260208101848484011115610a9a57610a996109ab565b5b610aa5848285610a5c565b509392505050565b600082601f830112610ac257610ac16109a6565b5b8135610ad2848260208601610a6b565b91505092915050565b60008060408385031215610af257610af16107e4565b5b600083013567ffffffffffffffff811115610b1057610b0f6107e9565b5b610b1c85828601610aad565b9250506020610b2d8582860161080f565b9150509250929050565b6000819050919050565b6000610b5c610b57610b52846108f0565b610b37565b6108f0565b9050919050565b6000610b6e82610b41565b9050919050565b6000610b8082610b63565b9050919050565b610b9081610b75565b82525050565b6000602082019050610bab6000830184610b87565b92915050565b6000602082019050610bc66000830184610851565b92915050565b6000610bd7826108f0565b9050919050565b610be781610bcc565b82525050565b6000602082019050610c026000830184610bde565b92915050565b610c1181610931565b8114610c1c57600080fd5b50565b600081519050610c2e81610c08565b92915050565b600060208284031215610c4a57610c496107e4565b5b6000610c5884828501610c1f565b91505092915050565b7f55736572206d75737420626520766572696669656420746f207061727469636960008201527f7061746500000000000000000000000000000000000000000000000000000000602082015250565b6000610cbd60248361086b565b9150610cc882610c61565b604082019050919050565b60006020820190508181036000830152610cec81610cb0565b9050919050565b7f50726f6475637420646f6573206e6f7420657869737400000000000000000000600082015250565b6000610d2960168361086b565b9150610d3482610cf3565b602082019050919050565b60006020820190508181036000830152610d5881610d1c565b9050919050565b7f50726f6475637420616c726561647920736f6c64000000000000000000000000600082015250565b6000610d9560148361086b565b9150610da082610d5f565b602082019050919050565b60006020820190508181036000830152610dc481610d88565b9050919050565b7f496e636f7272656374207061796d656e7420616d6f756e740000000000000000600082015250565b6000610e0160188361086b565b9150610e0c82610dcb565b602082019050919050565b60006020820190508181036000830152610e3081610df4565b9050919050565b7f53656c6c65722063616e6e6f7420627579206f776e2070726f64756374000000600082015250565b6000610e6d601d8361086b565b9150610e7882610e37565b602082019050919050565b60006020820190508181036000830152610e9c81610e60565b9050919050565b6000604082019050610eb86000830185610851565b610ec56020830184610bde565b9392505050565b7f4e487b7100000000000000000000000000000000000000000000000000000000600052602260045260246000fd5b60006002820490506001821680610f1357607f821691505b602082108103610f2657610f25610ecc565b5b50919050565b7f5072696365206d7573742062652067726561746572207468616e207a65726f00600082015250565b6000610f62601f8361086b565b9150610f6d82610f2c565b602082019050919050565b60006020820190508181036000830152610f9181610f55565b9050919050565b7f4e487b7100000000000000000000000000000000000000000000000000000000600052601160045260246000fd5b6000610fd2826107ee565b91507fffffffffffffffffffffffffffffffffffffffffffffffffffffffffffffffff820361100457611003610f98565b5b600182019050919050565b60008190508160005260206000209050919050565b60006020601f8301049050919050565b600082821b905092915050565b6000600883026110717fffffffffffffffffffffffffffffffffffffffffffffffffffffffffffffffff82611034565b61107b8683611034565b95508019841693508086168417925050509392505050565b60006110ae6110a96110a4846107ee565b610b37565b6107ee565b9050919050565b6000819050919050565b6110c883611093565b6110dc6110d4826110b5565b848454611041565b825550505050565b600090565b6110f16110e4565b6110fc8184846110bf565b505050565b5b81811015611120576111156000826110e9565b600181019050611102565b5050565b601f821115611165576111368161100f565b61113f84611024565b8101602085101561114e578190505b61116261115a85611024565b830182611101565b50505b505050565b600082821c905092915050565b60006111886000198460080261116a565b1980831691505092915050565b60006111a18383611177565b9150826002028217905092915050565b6111ba82610860565b67ffffffffffffffff8111156111d3576111d26109b0565b5b6111dd8254610efb565b6111e8828285611124565b600060209050601f83116001811461121b5760008415611209578287015190505b6112138582611195565b86555061127b565b601f1984166112298661100f565b60005b828110156112515784890151825560018201915060208501945060208101905061122c565b8683101561126e578489015161126a601f891682611177565b8355505b6001600288020188555050505b505050505050565b60006080820190506112986000830187610851565b81810360208301526112aa81866108b7565b90506112b96040830185610851565b6112c66060830184610bde565b9594505050505056fea26469706673582212202fb99d8ca2c545f44ac8e7303430931b8f486776fc5ab38a26d796dbfa479aba64736f6c634300081c0033",
  "linkReferences": {},
  "deployedLinkReferences": {}
}